:020000040800F2
:10000000F0170020DD010008FF2E0008EB2A000891
:10001000FD2E0008C50B0008553600080000000042
:100020000000000000000000000000004501000882
:10003000FF0B00080000000089010008E92F0008FC
:10004000F7010008F7010008F7010008F7010008B0
:10005000F7010008F7010008F7010008F7010008A0
:10006000F7010008F7010008F7010008C90B0008B4
:10007000F7010008F7010008F7010008F701000880
:10008000F7010008F7010008F7010008F701000870
:10009000F7010008F7010008F7010008F701000860
:1000A000F7010008F7010008F7010008F701000850
:1000B000F7010008F7010008A1300008F701000867
:1000C000F7010008F7010008F7010008F701000830
:1000D000F7010008F701000849360008F701000899
:1000E000F7010008F7010008F7010008F701000810
:1000F000F7010008F7010008F7010008F701000800
:10010000F7010008F7010008F7010008F7010008EF
:10011000F701000841330008F7010008F701000863
:10012000F7010008F7010008F7010008F7010008CF
:10013000DFF80CD000F07AFC004800475D39000879
:10014000F0170020224B19680868B0E8F00F80F320
:100150000988BFF36F8F4FF0000080F311884EF0D5
:100160000D0E70470000000006480068006880F32C
:10017000088862B661B6BFF34F8FBFF36F8F00DFA1
:1001800000BF00BF08ED00E0EFF30980BFF36F8F01
:100190000F4B1A6820E9F00F106008B54FF05000BF
:1001A00080F31188BFF34F8FBFF36F8F04F05AFEB7
:1001B0004FF0000080F31188BDE808401968086816
:1001C000B0E8F00F80F30988BFF36F8F704700BF6E
:1001D000C0000020EFF3058070470000064880470C
:1001E00006480047FEE7FEE7FEE7FEE7FEE7FEE71C
:1001F000FEE7FEE7FEE7FEE75930000831010008A0
:10020000202A04DB203A21FA02F00021704721FA6B
:1002100002F3D040C2F120029140084319467047D2
:1002200040EA01039B0703D009E008C9121F08C078
:10023000042AFAD203E011F8013B00F8013B521EF8
:10024000F9D27047D2B201E000F8012B491EFBD26F
:1002500070470022F6E710B513460A4604461946D1
:10026000FFF7F0FF204610BDF0B480EA0102D40F82
:100270004200B2EB410F02D20246084611464A0044
:1002800042D0C30DDDB2C1F3C752AD1A202D35DA0D
:10029000C1F3160141F4000204B15242C5F1200637
:1002A00002FA06F12A411044B3EBD05F23D0C4B167
:1002B000012DA0EBC35009DCF0BC4FF0004202EA74
:1002C000C352DBB200F5000000F015BA400000F1A7
:1002D000807000EBC350A0F1807040EAD1704900FB
:1002E00009E0490841EAC071A0EBC35000F50000E5
:1002F000400800EBC350F0BC00F0F4B961420122A9
:1003000002EB4101001BF6E7F0BC704781F00041B1
:10031000AAE780F00040A7E780EA010210B502F0EA
:100320000043400022D04A001FD0010E01EB1261B1
:10033000C0F35600C2F3560240F4000042F400023B
:10034000A0FB022000047F39140400D0401C50EAB6
:10035000124001D44000491EC2B20C0604EBD0107A
:10036000401C4008802A02D003E0002010BD20F08D
:100370000100002900DA0020184310BD30B480EAE3
:10038000010202F0004530F0004221F0004013D09D
:1003900090B1C30DD40DC2F31601C0F31600E41AD8
:1003A00041F4000140F400027D34914201D3641C09
:1003B00000E04900002C02DA30BC002070474FF406
:1003C00000000023914201D3891A034340084FEAF9
:1003D0004101F7D151B1914202D14FF0004105E006
:1003E00002D24FF0010101E06FF0010103EBC450B4
:1003F000284430BC00F076B92DE9FE4F81EA0304B1
:1004000004F0004421F0004100944FF0000B23F071
:10041000004350EA01045ED052EA03045BD0C3F308
:100420000A54C1F30A552C44A4F2F3340194A0FBFE
:100430000254C1F3130141F48011C3F3130343F4D5
:10044000801301FB024400FB034E840A970A44EA2E
:10045000815447EA8357A4FB076802958D0A05FB80
:1004600007854FEA932C04FB0C542705029D4FEAA5
:10047000065847EA1637B5EB08056EEB070C870EF2
:10048000920E47EA811742EA8312A7FB0201B6EBFC
:100490000B0164EB00042B0D43EA0C335E1844EBB4
:1004A0001C50DA465146E7FB0201C5F313044FEA3C
:1004B0000B3343EA14534FEA0432019C43EA060328
:1004C000A4F10C040294009CCDE900B400F050F9B2
:1004D00003B0BDE8F08F00200146F9E72DE9F04DAB
:1004E00081EA030404F0004B21F0004514464FF06C
:1004F000000A23F0004150EA050220D054EA01022C
:100500001DD0C5F30A570246C5F31303C1F3130008
:10051000C1F30A5640F4801543F48013A7EB060894
:10052000101BD64608F2FD3873EB050002D308F124
:10053000010801E092185B41B8F1000F03DA0020D6
:100540000146BDE8F08D00204FF480110646844638
:100550000EE0171B73EB050705D3121B63EB0503B6
:1005600006434CEA010C49084FEA300092185B41FF
:1005700050EA0107EDD152EA030012D082EA0400EA
:1005800083EA0501084305D0101BAB4106D20122C6
:10059000002306E000224FF0004302E06FF001026A
:1005A00053101AEB06004CEB085110EB0A0041EB1C
:1005B0000B01BDE8F04D00F0CCB870B521F0004360
:1005C00003430CD0C1F30A550024D5EB040564EBBA
:1005D0000403D617AD1AB34102DB0020014670BDFB
:1005E000201841EB025170BDC10F80EAE070084451
:1005F000CA079623002100F07EB8962300221146F8
:1006000000F079B80EB5C10F80EAE0700844CA075F
:10061000002140F233438DE80E000A460B4600F0FD
:10062000A7F803B000BD0EB540F23341029100219E
:10063000CDE900110A460B4600F09AF803B000BD60
:1006400000F0004220F00040C10DC0F3160040F45D
:1006500000007F2901DA00207047962903DCC1F1F0
:100660009601C84001E096398840002AF4D0404203
:10067000704700F0004230F000400AD0C10D01F593
:100680006071C0F3160042EA0151C20840071143ED
:10069000704700200146704701F0004330B421F05C
:1006A000004150EA010206D00A0DA2F56072C1F3C2
:1006B0001301002A02DC30BC00207047440F44EADA
:1006C000C104C100E01830BC00EBC25000F00AB811
:1006D000002801DBC0F10040002901DBC1F100412D
:1006E000884270470029A8BF7047401C490008BFD6
:1006F00020F00100704710B4B0FA80FC00FA0CF052
:1007000050EA010404BF10BC704749B1CCF1200489
:1007100021FA04F411FA0CF118BF01212143084316
:10072000A3EB0C01CB1D4FEA00614FEA102042BF42
:10073000002010BC704700EBC35010440029A4BF38
:1007400010BC7047401C490008BF20F0010010BCDD
:10075000704710B5141E73F1000408DA401C41F113
:10076000000192185B411A4301D120F0010010BD35
:100770002DE9F04D92469B4611B1B1FA81F202E0AB
:10078000B0FA80F22032904600F062F904460F463B
:1007900040EA0A0041EA0B0153465A46084313D087
:1007A000114653EA010019D0C8F140025046FFF744
:1007B00027FD05460E4650465946424600F048F988
:1007C000084305D0012004E020463946BDE8F08DFD
:1007D0000020054346EAE0762C4337430A98630538
:1007E000E40AA0EB08000022FD0A44EA47540A305C
:1007F00002D500200146E9E7010510196941DDE94C
:10080000084500196941BDE8F04DA2E72DE9FE4F0A
:10081000804681EA0300C00F0C46009021F00041A1
:1008200023F00045B8EB0200A94105D2404621461D
:1008300090461C460B46024623F00040104347D02A
:10084000270DC7F30A00C3F30A510290401A019022
:1008500040286BDAC3F3130040F4801B00989246E3
:1008600020B10023D2EB030A63EB0B0B019859462E
:10087000C0F14002504600F0EBF806460D465046E7
:100880005946019A00F0F3F810EB0800614100248A
:1008900087EA115284EAE7731A4340D0009A62B3A0
:1008A000019A012A4FEA075215DC001B61EB020195
:1008B0004FF0004202EA0752CDE90042001C41F528
:1008C000801132462B46FFF753FF03B0BDE8F08F8F
:1008D00040462146F9E7001B61EB0201001C41F58F
:1008E000801300185B412018A2F5001747EB0301A5
:1008F00040EAD570B6196D4111E06D084FEA360631
:1009000045EAC0754FEA0752001B61EB0201001C6B
:1009100041F5801149084FEA300000195141324633
:100920002B4603B0BDE8F04FFFF713BF009801223C
:1009300040000023D0EB020263EBE07300982146F5
:100940004FEAE074B8EB000061EB0401E9E783F0E3
:1009500000435BE781F0004158E72DE9F04D0023AB
:100960001A461B1A8A4103DB00200146BDE8F08DC0
:10097000C1F30A52C1F3130141F480154FF0000B8B
:10098000D10702D100186D41521E0027044640F2E3
:10099000FF11384601EB620A3E46804602460020BF
:1009A0004FF48011FFF72CFCC2197141BB1846EBC4
:1009B0000100B4EB030C75EB000C04D3E41A65EBF7
:1009C000000517460E46241908F101006D418046C6
:1009D0003428E3DDF91946EB0600091BA84103D2D0
:1009E0004FF0FF32134601E0002213461BEB0700D5
:1009F00046EB0A51BDE8F04DFFF7ABBE30B5041E23
:100A000071F1000404DB4FF00044404264EB01014B
:100A1000141E73F1000405DB1C464FF000435242E4
:100A200063EB0403994208BF904230BD064C074D6A
:100A300006E0E06840F0010394E8070098471034AE
:100A4000AC42F6D3FFF778FBA85F0008C85F000848
:100A5000202A04DB203A00FA02F10020704791407E
:100A6000C2F1200320FA03F3194390407047202A73
:100A700006DBCB17203A41FA02F043EAE07306E0C6
:100A800041FA02F3D040C2F12002914008431946D6
:100A90007047000070B5044600688168C943C90703
:100AA0001CD1816821F00101816000F00BFE054638
:100AB0000FE000BF00F006FE401B022809D9A06A23
:100AC00040F01000A062E06A40F00100E062012006
:100AD00070BD20688068C043C007EBD0002070BDA7
:100AE00010B50146406A826A12F0500F05D0006AC4
:100AF000026BBDE8104008461047816A41F400715E
:100B0000816201688968C1F3424107290CD1C1683B
:100B100051B9816A21F480718162816AC90403D468
:100B2000816A41F00101816200F0EAF810BD10B560
:100B3000406A816A41F040018162C16A41F004016A
:100B4000C16200F0DFF810BD10B5406A00F0D9F8BE
:100B500010BD0000F8B500260446009600688168C4
:100B6000C943C90728D0816841F001018160134859
:100B700013490068B0FBF1F000E0401E009000282F
:100B8000FBD100F09FFD054611E000BF00F09AFD8B
:100B9000401B02280BD9A06A40F01000A062E06A56
:100BA00040F00100E06284F824600120F8BD206874
:100BB0008068C043C007E9D10020F8BDBC00002018
:100BC00040420F00FEE70000014800F0D1BA0000EB
:100BD000B806002030B590F840500124AC40C56BF9
:100BE0006C60046863604368102B036803D09960ED
:100BF0000068C26030BD9A600068C16030BD704757
:100C000070470000F8B50024009490F82420254691
:100C1000012A12D0012280F824204A681F23072AC3
:100C20000DD20668776B521E02EB820293409F43FF
:100C30000B6893401F43776319E00220F8BD0668F4
:100C40000D2A0AD2376BD21F02EB820293409F43D8
:100C50000B6893401F43376309E0F76A0D3A02EBD4
:100C6000820293409F430B6893401F43F7620A68D8
:100C7000072306680A2A0AD3F7680A3A02EB4202F7
:100C800093409F438B6893401F43F76008E03769A8
:100C900002EB420293409F438B6893401F433761AE
:100CA0000A68102A01D0112A20D1124B02689A42F8
:100CB00017D193681B0219D4936843F4000393601F
:100CC0000968102912D10C490C4A0968B1FBF2F1EC
:100CD00001EB8101490000E0491E00910029FBD190
:100CE00004E0816A41F020018162012480F82450EF
:100CF0002046F8BD00240140BC00002040420F0007
:100D000070477047704700002DE9F04104004FF034
:100D100000057FD0A06A002628B9E66284F8246026
:100D2000204600F081F82046FFF7B4FEA16AC9060C
:100D300000D420B1A06A40F01000A0626AE0A16A6D
:100D400021F4885141F00201A162334923688B42AA
:100D5000E16904D1B1F5402F01D14FF40021E768DA
:100D60004FF4807C41EA470261680A43A16861450B
:100D700008D0012906D00021D4F814E0BEF1010FFB
:100D800002D00AE06146F7E7C7B1A76A47F020073B
:100D9000A762E76A47F00107E7625F6827F46947DF
:100DA0000F435F60236899681C4F39401143996075
:100DB000A16861450BD0012909D00CE0DFF860E0A3
:100DC000A7690EEB47370F4347F40061E5E7218A37
:100DD0000D05A5F580152168CB6A23F470032B431C
:100DE000CB62216889680F4B1940914208D1E662B5
:100DF000A16A21F0020141F00101A162BDE8F08188
:100E0000A06A20F0020040F01000A062E06A40F00A
:100E10000100E0620120F1E7003C0140FDF7E1FF45
:100E200000E0FFFFFE0E1FFF70B586B000250646EE
:100E3000009501950295039500681A4988422ED1C4
:100E40001949886940F400708861886900F400706D
:100E50000490886940F0040088618869694600F060
:100E60000400049030200090032001900F4800F00F
:100E70002BFB104C0E48C4E900058020C4E9025049
:100E800040002061800060612020C4E90605204602
:100E900000F092FA08B1FFF7B3FE3462666206B062
:100EA00070BD000000240140001002400008014015
:100EB00008000240B80600202DE9F04789460446A4
:100EC0003B4900683B4F0E1D9046884201D0B84216
:100ED00007D1306810F4702F03D001252846BDE8F3
:100EE000F08794F8240001280CD0012084F8240015
:100EF0002046FFF72FFE05004FF0000004D084F8D5
:100F00002400EBE70220EAE7A16A40F60162914380
:100F100041F48071A1622168B94218D1326812F49B
:100F2000702F14D0A16A41F48011A1623168490583
:100F300005D5A16A21F4005141F48051A162A16A52
:100F4000C9040AD5E16A21F00601E16206E0A26A5D
:100F500022F48012A2624968E9E7E06284F8240082
:100F6000216A15488862216A1448C862216A1448B7
:100F7000086321686FF0020008602068816841F40E
:100F800080718160216843464A464C31206A00F0F6
:100F900051FA20688168C1F342410729816803D072
:100FA00041F48011816099E741F4A001FAE7000063
:100FB0000024014000280140E10A0008490B000814
:100FC0002F0B000810B5044690F82400012807D024
:100FD000012084F824002046FFF75CFD10B10EE0EC
:100FE000022010BD2068816821F480718160206A30
:100FF00000F00EF8A16A30B141F04001A162002179
:1010000084F8241010BD21F4885141F00101F5E766
:1010100001680A6822F00E020A6001680A6822F07C
:1010200001020A6090F84020C36B012101FA02F22C
:101030005A6080F82110002180F82010084670477F
:101040002DE9F05F90F821100024022903D004213B
:101050008163012485E001680A6822F00E020A60BB
:1010600001680A6822F001020A603F4E3E4FB21545
:10107000DFF8F4C0DFF8F090DFF8ECA0DFF8E8B0BC
:10108000DFF8E4E00168783F13011502ACF1640C6D
:10109000A9F15009AAF13C0AABF1280BAEF1140EEC
:1010A0004FF48018B14227D9B9420ED0614512D011
:1010B00049451DD0514518D0594518D0714501D129
:1010C000424615E0294EB14201D1012210E0274EDF
:1010D0001436B14201D110220AE0244E2836B14222
:1010E00006D0224A3C32914201D11A4600E02A46FB
:1010F0001E49091F0A602BE0B94213D0614517D081
:10110000494522D051451DD059451DD0714501D1C9
:1011100042461AE0B14202D14FF0807215E0134E00
:10112000B14201D1012210E0104E1436B14201D17A
:1011300010220AE00D4E2836B14206D00B4A3C324E
:10114000914201D11A4600E02A46074980394A6097
:10115000012180F82110002180F82010416B01B19D
:1011600088472046BDE8F09F800002400804024006
:101170002DE9F05FC16B0A6801680B68046C4FF0E1
:10118000040808FA04F8844D844E854FDFF814C231
:10119000DFF81492DFF814A2DFF814B2DFF814E2DB
:1011A00018EA020F65D05FEA437862D50A689206B2
:1011B00003D40A6822F004020A60DFF8F0814FF4D9
:1011C0008062016808F1140813011402414524D912
:1011D000A9420DD0B1420FD0B9421AD0614515D005
:1011E000494515D0514501D1120312E0594501D1AD
:1011F00004220EE0714501D140220AE06D4D143504
:10120000A94206D06B4A2832914201D11A4600E029
:1012100022466749091F0A6029E0A94213D0B1425A
:1012200015D0B94220D061451BD049451BD051454E
:1012300002D14FF4800217E0414502D14FF08062A5
:1012400012E0594501D104220EE0714501D140223E
:101250000AE0584D1435A94206D0564A2832914228
:1012600001D11A4600E022464B4908394A60C16A5A
:1012700071E04FF0020808FA04F818EA020F70D083
:101280005FEA83786DD50A68920606D40A6822F070
:101290000A020A60012180F82110DFF810814FF462
:1012A0000072016808F1140813011402414524D9A1
:1012B000A9420DD0B1420FD0B9421AD0614515D024
:1012C000494515D0514501D1120312E0594501D1CC
:1012D00002220EE0714501D120220AE0354D14357D
:1012E000A94206D0334A2832914201D11A4600E081
:1012F00022462F49091F0A6029E0A94213D0B142B2
:1013000015D0B94220D061451BD049451BD051456D
:1013100002D14FF4001217E0414502D14FF00072A4
:1013200012E0594501D102220EE0714501D120227F
:101330000AE0204D1435A94206D01E4A28329142B7
:1013400001D11A4600E02246134908394A600021BB
:1013500080F82010816A00291CD0BDE8F05F0847A2
:10136000FFE70825A540154214D01A0712D50A68D0
:1013700022F00E020A6090F84020C36B012101FAAE
:1013800002F25A60816380F82110002180F8201059
:10139000016BE0E7BDE8F09F080002401C0002403E
:1013A0003000024044000240580002406C000240FD
:1013B000080402401C04024030B560B11A4B0268B8
:1013C00014219A4209D2194B1344B3FBF1F189005D
:1013D000016417490AE0012030BD134B5B421344FE
:1013E000B3FBF1F1890001640F490839C16302219F
:1013F00080F82110136843F6F0718B43F0E9011473
:101400002143D0E902452C43214304692143446927
:101410002143846921431943116000214163012262
:1014200042770177084630BD08040240F8FFFDBF4F
:101430000000024070B5044690F820000025012805
:101440000CD0012084F8200094F821600020012EA7
:1014500006D084F820000225284670BD022070BD09
:10146000022684F82160A0632068066826F0010641
:1014700006602046FFF7AEFBE06A0028206801689E
:1014800002D041F00E0106E021F004010160206865
:10149000016841F00A0101602068016841F0010122
:1014A0000160D9E770B5044600F00CF90546601CF0
:1014B00002D004480078044400F004F9401BA04224
:1014C000FAD370BDB00000202DE9F84FDFF8B8A1C5
:1014D00000220AF1040B144601274FF00F090BF10B
:1014E000040E00BF0B6807FA04F52B40AB4274D121
:1014F000DFF898C14E68A6EB0C0866452BD00DDCD2
:10150000032E34D005DC36B3012E19D0022E2FD194
:101510001BE0112E16D0122E2AD119E0B8F5881F23
:1015200019D006DCB8F5803F15D0B8F5801F1FD163
:1015300011E0B8F5001F0ED0B8F5041F18D10AE06D
:10154000CA6815E0CA68121D12E0CA6808320FE0C6
:10155000CA680C320CE08A682AB1012A4FF00802EE
:1015600003D0456104E0042202E0056100E00022AE
:10157000FF2B01D8064601E000F104064FEA84057E
:1015800001D9A5F12005D6F800C009FA05F82CEA22
:10159000080C02FA05F54CEA050CC6F800C04D68C7
:1015A000ED006AD53A4DAE6946F00106AE61AD690F
:1015B00024F0030605F001050095364D06EB050CF9
:1015C000DCF80850A6074FEA167809FA08F6B54382
:1015D000314EB04202D100261AE04EE02F4EB0420A
:1015E00001D1012614E02E4EB04201D102260FE0B7
:1015F0002C4EB04201D103260AE02B4EB04201D15D
:10160000042605E0294EB04201D1052600E0062659
:1016100006FA08F62E43CCF808604D68DAF8006048
:10162000ED03554601D51E4300E09E432E604D68F4
:10163000AD0305D5DBF800601E43CBF8006004E085
:10164000DBF800509D43CBF800504D68DEF8006099
:10165000ED02754601D51E4300E09E432E604D68A5
:10166000AD0205D5084D0C352E681E432E6004E0F2
:10167000054E0C3635689D433560641C102CFFF414
:1016800031AFBDE8F88F00000004014000001110E8
:10169000001002400000014000080140000C014021
:1016A000001001400014014000180140001C0140DE
:1016B000C2684A40C26070470AB1016170470904BC
:1016C000FBE700000148806870470000B000002080
:1016D00070B504001BD094F83D00002520B984F8B3
:1016E0003C50204600F032F9242084F83D00206868
:1016F000016821F00101016000F020FB404A6168AF
:10170000914201D83F4900E03F49884201D201207F
:1017100070BD3E492368B0FBF1F1596063689342A4
:1017200006D94FF4967359434FF47A73B1FBF3F132
:101730002368491C19626168914210D84900401E13
:10174000B0FBF1F2521CC2F30B02042A01D20420B6
:1017500022E0B0FBF1F0401CC0F30B001CE0A368DA
:10176000CBB301EBC10202EB0116421EB2FBF6F253
:10177000521C42F48042120536D06BB301EBC10219
:1017800002EB0111401EB0FBF1F0401CC0F30B0056
:1017900040F4804040F400402168C861D4E907016A
:1017A000084321680860D4E9031008432168886071
:1017B000D4E9050108432168C8602068016841F048
:1017C000010101602564202084F83D00256384F830
:1017D0003E50002070BD00E008E001EB4106421ED3
:1017E000B2FBF6F2521CC6E70120D5E701EB41013E
:1017F000401EB0FBF1F0401CC0F30B00CAE7000034
:10180000A086010080841E0000093D0040420F00B8
:101810002DE9FF4F83B09A46DDE9118793460446D0
:10182000DDF84090FFF74EFF064694F83D00202873
:101830007DD11923012243492046009601F0E1F9A8
:1018400000287CD194F83C00012878D0012084F84D
:101850003C0020680168C90703D1016841F001011B
:1018600001602068016821F400610160212084F892
:101870003D00402084F83E0000252564C4F82490F3
:10188000A4F82A803048E062608D2085CDE900769A
:1018900053465A462046049901F03CF980B3206C27
:1018A00084F83C50042848D008E0324639462046A7
:1018B00001F01CFA30B1206C042839D0032007B0A5
:1018C000BDE8F08F606A411C6162216800780861A0
:1018D000208D401E80B22085618D491E6185216862
:1018E0004A69D24352070BD468B1606A421C6262F3
:1018F00000780861208D401E2085608D401E608527
:10190000208D0028D1D132463946204601F052F9C7
:101910000028D0D154F83D0B016841F400710160FA
:10192000202004F81E09E57765770020C7E706E068
:101930002068016841F4007101600120BFE70220C6
:10194000BDE70000020010000000FFFF10B586B0E8
:101950000021009101910291039100681049884291
:101960001BD1104CA06940F00800A061A069694635
:1019700000F0080004904FF44060009012200190A5
:10198000032003900848FFF79FFDE06940F48000C2
:10199000E061E06900F48000049006B010BD000032
:1019A0000058004000100240000C014002488168CD
:1019B0000278114481607047B0000020074810B5DC
:1019C000016841F010010160032000F079F80F2058
:1019D00000F006F800F024F8002010BD00200240BE
:1019E00070B50D4D04464FF47A712878B1FBF0F0D4
:1019F0000A490968B1FBF0F000F07CFB48B9102CF3
:101A000007D200222146501E00F03AF800206C60F8
:101A100070BD012070BD0000B0000020BC0000209F
:101A20000F4808B5816941F001018161816901F0C8
:101A300001010091C16941F08051C161C06900227A
:101A400000F0805000900F21901E00F019F805481A
:101A5000416821F0E06141F08061416008BD000013
:101A6000001002400000014000F01F0201219140DF
:101A70004009800000F1E020C0F80011704700002C
:101A8000F0B40E4B1B680C46C3F30223C3F10705E9
:101A9000042D00D90425191D072901D2002300E0D7
:101AA000DB1E012606FA05F1491E214099409E40A1
:101AB000761E16403143F0BC01F022BA0CED00E076
:101AC000064900F0070208684FF6FF03184040EA95
:101AD0000220034A10430860704700000CED00E04C
:101AE0000000FA052DE9F84305460078354CC0079B
:101AF00054D0E0690026C00008D4E06940F080506E
:101B0000E061E069012600F0805000902E480168F5
:101B1000C90512D40168804641F480710160FFF765
:101B2000D1FD074605E000BFFFF7CCFDC01B6428D0
:101B300023D8D8F80000C005F6D5206A10F440700C
:101B400021D0A98801F4407181421CD0206A1F492C
:101B5000012220F440700A6000220A602062C0075F
:101B600011D0FFF7AFFD074641F2883808E000BF0B
:101B7000FFF7A8FDC11B414502D90320BDE8F8834A
:101B8000206A8007F4D5206A696820F44070084311
:101B900020621EB1E06920F08050E0612878800763
:101BA00005D56068A96820F4404008436060287843
:101BB000C00605D56068696920F48000084360604C
:101BC0000020DBE700100240007000404004424269
:101BD0002DE9F047DFF8548105460E46D8F800009D
:101BE00000F00700B0420CD2D8F8001021F0070135
:101BF0003143C8F80010D8F8000000F00700B042E8
:101C00006FD128684A4C810712D5400703D5606818
:101C100040F4E06060602878000703D5606840F415
:101C2000605060606068A96820F0F0000843606060
:101C30002878C00744D06868012816D02168022897
:101C400016D0890700294CDA616821F003010143AD
:101C50006160FFF737FD6968074641F28830012966
:101C60000ED00229814618D026E021688903E9E7D1
:101C70008901E7E7FFF726FDC11B494501D918E0B7
:101C800081466068C0F381000128F3D118E000BFED
:101C9000FFF718FDC11B49450BD86068C0F38100F0
:101CA0000228F5D10CE000BFFFF70CFDC11B494530
:101CB00002D90320BDE8F087606810F00C0FF3D163
:101CC000D8F80010404601F00701B1420BD9016875
:101CD00021F0070131430160006800F00700B042C5
:101CE00001D00120E6E72878400705D56068E9685B
:101CF00020F4E060084360602878000706D560683B
:101D0000296920F4605040EAC100606000F036F8B4
:101D10006168084AC1F30311515CC8400649086074
:101D20000F20FFF75DFE0020C4E700000020024006
:101D300000100240E45E0008BC0000200448054991
:101D400000684968044AC1F30221515CC8407047E9
:101D5000BC00002000100240F45E00080448054961
:101D600000684968044AC1F3C221515CC840704709
:101D7000BC00002000100240F45E000813A185B0F2
:101D80000FC98DE80F0015A0154A0068049051682E
:101D900001F00C00042804D0082804D0114805B034
:101DA00070471148FBE7C1F38343C9031DF80300E3
:101DB00009D5516804AAC1F34041515C0A4A504315
:101DC000B0FBF1F0EBE709494843E8E702030405FB
:101DD000060708090A0B0C0D0E0F10100102000077
:101DE0000010024000127A000024F40000093D00B7
:101DF0002DE9F84F04460078B94DC00748D068680F
:101E0000C0F38100012807D06868C0F38100022870
:101E100009D16868C00306D52868800338D5606892
:101E200000286FD034E06068B0F5803F0BD010B16F
:101E3000B0F5A02F11D0286820F4803028602868E1
:101E400020F4802002E0286840F480302860606838
:101E500088B1FFF737FC064609E0286840F4802087
:101E60002860F0E7FFF72EFC801B642875D82868EF
:101E70008003F7D50CE0FFF725FC064605E000BF20
:101E8000FFF720FC801B6428F0D828688003F7D473
:101E90002078944E80074FF001094FF000083BD5A1
:101EA000686810F00C0F07D06868C0F38100022842
:101EB00009D16868C00306D42868800714D5206952
:101EC00001281FD110E02069B0B1C6F80090FFF7DB
:101ED000F9FB074605E000BFFFF7F4FBC01B022833
:101EE000C4D828688007F7D52868616920F0F80011
:101EF00040EAC10028600FE0C6F80080FFF7E2FB6F
:101F0000074606E0E9E000BFFFF7DCFBC01B022844
:101F100023D828688007F7D4207800072CD572488A
:101F2000A169D9B1C0F80090FFF7CCFB074604E0E7
:101F3000FFF7C8FBC01B02280FD8686A8007F7D5D7
:101F40006A484FF4FA510068B0FBF1F0009000BF0E
:101F50000098411E0091FAD20EE080E0C0F80080A7
:101F6000FFF7B0FB074604E0FFF7ACFBC01B0228FD
:101F700075D8686A8007F7D42078400760D5E8698B
:101F80000027C00008D4E86940F08050E861E869A3
:101F9000012700F08050009055480168C90513D40E
:101FA0000168834641F480710160FFF78BFB824634
:101FB00006E000BFFFF786FBA0EB0A0064284ED8BE
:101FC000DBF80000C005F5D5E06801280AD008B1AB
:101FD000052813D0286A20F001002862286A20F022
:101FE000040002E0286A40F001002862E06841F243
:101FF000883B98B1FFF766FB82460BE0286A40F009
:1020000004002862EEE700BFFFF75CFBA0EB0A01CB
:1020100059455AD8286A8007F6D50CE0FFF752FBDD
:10202000824605E0FFF74EFBA0EB0A0159454CD86C
:10203000286A8007F6D41FB1E86920F08050E86173
:10204000E06988B36968C1F38101022945D002289B
:10205000C6F8608004D0FFF735FB044638E034E072
:10206000FFF730FB074604E0FFF72CFBC01B0228FC
:102070002BD828688001F7D4206AB0F5803F05D1BD
:102080006868A16820F4003008436860D4E908015A
:102090000843696821F4741108436860C6F86090C9
:1020A000FFF710FB044606E015E000BFFFF70AFB50
:1020B000001B022809D828688001F7D50BE000BF73
:1020C000FFF700FB001B022802D90320BDE8F88FB0
:1020D00028688001F4D40020F8E70120F6E700002A
:1020E000001002400000424280044242BC00002036
:1020F0000070004010B5401EB0F1807F01D3012078
:1021000010BD4FF0E02460610F21601700F0F8FE71
:102110000020A06107202061002010BD704770479B
:1021200030B590F83C20012A20D0012280F83C20D4
:10213000022380F83D3003685C6824F070045C6022
:1021400003685C680D682C435C6003689C6824F03D
:1021500080049C6003689C6849680C439C6080F81C
:102160003D20002180F83C10084630BD022030BDE3
:1021700010B5040003D094F83D0010B107E0012031
:1021800010BD002084F83C00204600F00DF802202D
:1021900084F83D00211D206800F088FF012084F8AC
:1021A0003D00002010BD000008B501681048B1F1E5
:1021B000804F14D00F4A914219D1C16941F00401F6
:1021C000C161C069002200F00400009005211E20BA
:1021D000FFF756FCBDE808401E20FFF745BCC1696B
:1021E00041F00101C161C06900F00100009008BD2B
:1021F00000100240000800400168CA6842F0010275
:10220000CA600068016841F0010101600020704768
:1022100070B5044690F83C00012817D0012584F8D9
:102220003C50022084F83D002068826822F077024A
:1022300022F47F4282600868502837D00DDC2028C5
:1022400059D005DC88B3102841D151E0022070BD7F
:10225000302853D040283AD13FE060282ED0702853
:102260000BD0B0F5805F03D0B0F5005F2FD110E048
:102270002068816821F0070115E0CB68D1E90121D0
:10228000206800F064FF2168886840F0770088606B
:102290001DE0CB68D1E90121206800F058FF2068DB
:1022A000816841F48041816011E01EE0CA6849689C
:1022B000206801F021F85021206806E0CA684968CA
:1022C000206801F02AF86021206800F04AFF84F8B5
:1022D0003D50002084F83C0070BDCA684968206801
:1022E00001F00AF840212068EFE700212068ECE7C0
:1022F00010212068E9E720212068E6E730212068E6
:10230000E3E7704770B50446006801694FF00005C7
:10231000C943890715D4C168C943890711D4E91E87
:10232000016101202077206880698007204602D063
:10233000FFF7E7FF04E000F0BBF8204600F03DF9AE
:10234000257720680169C943490717D4C168C94383
:10235000490713D46FF0040101610220207720683F
:10236000806910F4407F204602D0FFF7CAFF04E0E6
:1023700000F09EF8204600F020F9257720680169DA
:10238000C943090716D4C168C943090712D46FF0BD
:1023900008010161042020772068C0698007204679
:1023A00002D0FFF7AEFF04E000F082F8204600F014
:1023B00004F9257720680169C943C90617D4C168A3
:1023C000C943C90613D46FF01001016108202077BA
:1023D0002068C06910F4407F204602D0FFF791FFCB
:1023E00004E000F065F8204600F0E7F82577206863
:1023F0000169C943C90708D1C168C943C90704D1E4
:10240000891E0161204600F0F5F820680169C94382
:10241000090609D4C168C943090605D46FF08001D3
:1024200001612046FFF77AFE20680169C943490629
:1024300009D4C168C943490605D46FF04001016160
:10244000204600F0C1F920680169C94389060BD410
:10245000C168C943890607D46FF020010161204695
:10246000BDE87040FFF75BBE70BD000000B585B0F1
:10247000002100910191029103910068B0F1804F19
:1024800010D10948816941F0040181618069694680
:1024900000F0040004900220009001900390034893
:1024A000FFF712F805B000BD00100240000801401F
:1024B000704770B5044690F83C000D4601280DD0D9
:1024C000012684F83C60022084F83D0042B1042AD1
:1024D00018D0082A2AD00C2A4DD139E0022070BD2C
:1024E000206800F047FE2068816941F008018161A1
:1024F0002068816921F004018161206881692A696D
:10250000114311E0206800F065FE2068816941F404
:10251000006181612068816921F4806181612068A6
:1025200081692A6941EA0221816124E0206800F082
:1025300087FE2068C16941F00801C1612068C16956
:1025400021F00401C1612068C1692A69114311E0C9
:10255000206800F0A9FE2068C16941F40061C161F2
:102560002068C16921F48061C1612068C1692A695C
:1025700041EA0221C16184F83D60002084F83C00FA
:1025800070BD10B5040003D094F83D0010B107E011
:10259000012010BD002084F83C00204600F00CF81B
:1025A000022084F83D00211D206800F07FFD0120FD
:1025B00084F83D00002010BD7047704710B50446F8
:1025C0000068012200F0B8FD08492068884202D066
:1025D0000749884203D1416C41F4004141642068BD
:1025E000016841F001010160002010BD002C014094
:1025F000003401402DE9F05F00686D49884265D1E3
:1026000002226C496C48FEF757FC0220694C0127F6
:10261000241D0025401C0F28F8DB6748FEF7D2FC7C
:10262000DFF89081B8F80000FDF7FDFFDFF88CA11E
:102630004FF066394A465346FDF7DEFE6FF00B0B4E
:102640005A46FDF7BAFFFEF727F806462060B8F8AD
:102650000200FDF7E8FF4A465346FDF7CDFE5A4615
:10266000FDF7ABFFFEF718F804F1400108603046B3
:10267000A168FEF72DF806D2A1682068FDF746FE96
:102680002763A06205E02168A068FDF73FFE25638F
:10269000A062266B3046FDF7A7FFE061E06AB0421A
:1026A00001D0012E14D0606B401C6063A76A206AC1
:1026B0003946FDF7D9FD394620620846FDF72CFE64
:1026C000616AFDF7D1FDE662A5616062BDE8F09F39
:1026D000A761A046606BFDF795FF89460646384F17
:1026E0004B46324600203946FDF7F8FEFDF7D4FF91
:1026F000A0633046494602F03CF902460B460020F2
:102700003946FDF7EBFEFDF7C7FFE0630646A16B18
:10271000206AFDF701FE20613046FDF7AAFF07465B
:102720000E46606AFDF7A5FF02F023F93A463346EC
:10273000FDF762FEFDF7B0FFE0600646A16B606842
:10274000FDF7EAFD6061206BE0621A4C31461C3CEB
:102750002088401C87B2278020698246FDF7D6FD7D
:10276000DFF86090484505DB51463046FDF7CEFD69
:10277000484507DA30466168FDF776FD606060889D
:10278000401C6080322F0AD16088FDF736FF014679
:102790006068FDF7F3FD6560E06025806580266177
:1027A000C8F82050C8F82450C8F834508EE700000C
:1027B000000800402C0000202805002066660A4022
:1027C0000000F03FB003E73C7047704770B5026807
:1027D00004461068D168536910F00F0F50D003F011
:1027E000010501F4907635435DD0C20705D0CA05D6
:1027F00003D5E26B42F00102E263420705D5DA0736
:1028000003D0E26B42F00202E263820705D5DA07E9
:1028100003D0E26B42F00402E263020705D5DA0757
:1028200003D0E26B42F00802E263E26B002A33D08D
:10283000800604D5880602D5204600F09DFD20685C
:102840004069E16BC0F38010090700D428B320462B
:1028500000F084FD2068416949061AD5416921F0DC
:1028600040014161606BA0B11B494163606BFEF7A1
:10287000E7FB002810D0606B416BBDE87040084753
:10288000830610D58B060ED52046BDE8704000F0BB
:1028900073BD2046FFF799FF70BD2046FFF795FFF7
:1028A0000020E06370BD030606D50B0604D5204664
:1028B000BDE8704000F064BE4006F3D54806F1D58F
:1028C000D168204621F04001D160202184F83910E0
:1028D00000F00AF970BD00004D33000870B5040027
:1028E00004D094F83900002510B106E0012070BD35
:1028F00084F83850204600F023F8242084F839006A
:102900002068C16821F40051C160204600F080FDBC
:102910002068016921F4904101612068416921F03A
:102920002A0141612068C16841F40051C160E5633A
:10293000202084F8390084F83A00002070BD00009F
:1029400070B586B000240094019402940394314E33
:1029500003683148022103220425B3422DD1C36903
:1029600043F48013C361C36903F480130493836940
:1029700043F010038361836903F0100304938369B8
:1029800043F0200383618069039200F020000490EB
:10299000C802CDE9000169462048FEF795FDCDE962
:1029A000005469461E480294FEF78EFD0022052160
:1029B0003520FFF765F8352028E01A4EB34227D1BD
:1029C000C36943F40033C361C36903F40033049360
:1029D000836943F0040383618069CDE9005100F00D
:1029E0000400CDE90320104D69462846FEF76CFD32
:1029F0000820CDE90004694628460294FEF764FDEC
:102A0000002205212620FFF73BF82620FFF72CF8AF
:102A100006B070BD005000400010024000100140A0
:102A200000140140004400400008014070472DE9B7
:102A3000F843044690F839001F4616460D462028F4
:102A400050D1A5B19EB194F8380001284AD0012098
:102A500084F838004FF00008C4F83C80212084F846
:102A60003900FEF72FFEA6848146E68426E0012089
:102A7000BDE8F883E08C401EE084A0684B46B0F5CA
:102A8000805F4FF000024FF080012046009703D096
:102A900000F0A7FDE8B90DE000F0A3FDC8B9288853
:102AA0002168C0F308004860206908B16D1C05E08A
:102AB000AD1C03E0216815F8010B4860E08C00288C
:102AC000D8D14B46002240212046009700F089FDD6
:102AD00008B10320CCE7202084F8390084F838803E
:102AE0000020C5E70220C3E77047FEE701684A6996
:102AF000D24352050CD46FF480624A610421016410
:102B0000002140F8301F20224273017301207047DA
:102B1000002070472DE9F843044600680D46DDE9C2
:102B2000089701689846164641F4807101604B464B
:102B300000224FF001112046009700F062F8E8B93A
:102B4000216805F0FE0008613B464A4618492046C8
:102B500000F088F828B1206C04280FD10120BDE8CE
:102B6000F88320684169806900903A4649462046CA
:102B700000F0BCF820B1206C042813D00320EEE74D
:102B8000F5B2B8F1010F09D02168300A08613A4660
:102B90004946204600F0AAF80028ECD120680561DB
:102BA0000020DCE72068016841F400710160D5E78E
:102BB0000200010070B516460D4604461AE0204694
:102BC000FFF794FF08B1012070BD681C12D025B139
:102BD000FEF778FD801BA8420CD954F8400F40F056
:102BE000200044F810090020206020216173207328
:102BF000032070BD20684069C0434007DFD4002037
:102C000070BD2DE9F0471E4690460D460446C1F3BF
:102C10000747DDF8209012E0701C10D02EB1FEF7AF
:102C200051FDA0EB0900B04209D9002044F8300F53
:102C300020216173A07320730320BDE8F087206812
:102C4000012F0AD0806925EA00000004000C06D09C
:102C500000214145E0D00020EFE74069F3E7012182
:102C6000F7E700002DE9F0479A4691460D460446E5
:102C700000264FF02008C1F307472AE0206840698A
:102C8000C043400512D42068016841F4007101601E
:102C900021686FF48060486104202064266384F812
:102CA0003D8084F83C600120BDE8F087B9F1FF3F2A
:102CB0000FD0B9F1000F05D0FEF704FDA0EB0A011B
:102CC000494506D944F8306F84F80D8026730320F7
:102CD000EAE72068012F07D0D0F8180025EA0000A5
:102CE0000004000CE0D0C9E74069F7E770B516466C
:102CF0000D4604461AE02046FFF7F8FE08B1012011
:102D000070BD681C12D025B1FEF7DCFC801BA84208
:102D10000CD954F8400F40F0200044F8100900206E
:102D20002060202161732073032070BD20684069FA
:102D3000C0430006DFD4002070BD00003EB5002473
:102D40001248009401941049029401608915C0E969
:102D500002144461022505614FF460214460C161A1
:102D6000FDF7D2FF042000900120CDE9010469465F
:102D70000648FDF747FF0520CDE9000569460348F1
:102D8000FDF740FF3EBD0000002401402805002063
:102D90002DE9F04186B00024234800940194029468
:102DA0000394816941F010018161816901F0100192
:102DB0000491816941F004018161816901F004019C
:102DC0000491816941F008018161816901F0080184
:102DD0000491816941F0200181618069134F00F005
:102DE00020000490002207213846FEF765FCDFF83A
:102DF0004080002201214046FEF75EFC07200125AD
:102E00000226CDE90005CDE9024669463846FEF7BF
:102E10005BFB03960095CDE9015469464046FEF7F9
:102E200053FB06B0BDE8F0810010024000100140E5
:102E30000008014010B58EB000240794089409944E
:102E40000A940B941C2168460C94FDF702FA16486C
:102E50004FF0804101604021C0E901144FF47A71C4
:102E6000C0E903148461FFF783F94FF480500790A1
:102E700007A90D48FFF7CCF90B48FFF782FB0B942D
:102E80000BA909480C94FFF74BF96020CDE9000429
:102E900002940422694604480494FFF70AFB02489E
:102EA000FFF7E4FA0EB010BDAC05002010B586B0F7
:102EB00000241148009401940294039404940D4951
:102EC000059401604021C0E90114C821C0E9031440
:102ED0008461FFF74DF94FF4805000906946064831
:102EE000FFF796F9049404A903480594FFF718F92D
:102EF00006B010BD00080040EC050020FEE770475A
:102F00000907090E002806DA00F00F0000F1E020A2
:102F100080F8141D704700F1E02080F8001470471D
:102F20000020204DDFF88480214E28601E48DFF805
:102F30008490A5F120044FF0333740F2DC5A6860EA
:102F4000E068FDF796FB3A464346FDF755FAFDF774
:102F5000A3FBE0606969A1600122174900F0A4FCAD
:102F6000154916A000F078FB14211E2001F0C0FDC9
:102F7000D6E900120023104801F046FE28211E2049
:102F800001F0B6FDD6E9001200230FA001F03CFECF
:102F900001F0B4FD04214846FEF78AFB504600F0DC
:102FA000A5FDCDE73000002000409C45330F864052
:102FB0000000002000100140AC06002056726D7326
:102FC000203D2025730A000037323000054C4FF4B5
:102FD000FA7502212046FEF76BFB284600F086FDBD
:102FE000F7E700000010014010B5FEF7DFFCBDE878
:102FF000104000F087BD30B595B028216846FDF738
:1030000028F914210AA8FDF724F918210FA8FDF7C3
:1030100020F902240120049000941020059000253E
:103020004FF46010CDE9085007946846FEF7E0FEC3
:103030000AA90F2081E831006002CDE90D050221C7
:103040000AA8FEF7C5FD4FF4404011900F940FA859
:10305000FEF748FD15B030BD0D48016841F0010193
:10306000016041680B4A1140416001680A4A114001
:103070000160016821F480210160416821F4FE01B2
:1030800041604FF41F0181600449C003086070472C
:10309000001002400000FFF8FFFFF6FE08ED00E020
:1030A0000148FFF72FB90000EC050020F0B50268D9
:1030B0001C4B1D4D1D4E1E4F1E4C4FF0804C984218
:1030C00009D0A04207D0604505D0A84203D0B04245
:1030D00001D0B84204D122F0700E4A6842EA0E02D2
:1030E000984209D0A04207D0604505D0A84203D03D
:1030F000B04201D0B84203D122F44075CA682A43D5
:1031000022F080054A692A4302608A68C2620A681E
:103110008262984201D0A04201D109690163012174
:103120004161F0BD002C0140000400400008004057
:10313000000C00400034014010B50123046A8B40AC
:103140009C430462036A8A401343036210BD10B5B6
:10315000846842EA032224F47F440A4322438260C3
:1031600010BD826822F070020A4342F007018160BC
:1031700070470000F0B5026A22F001020262036AA1
:1031800042688469124E24F073050C682C4323F0C6
:1031900002058B682B430D4DA84201D0B04205D1EA
:1031A00023F00807CB683B4323F00403A84201D077
:1031B000B04205D14D6922F4407215438A692A4311
:1031C00042608461496841630362F0BD002C0140A4
:1031D00000340140F0B5026A22F010020262026A75
:1031E000436884690D6824F4E64444EA05248D6844
:1031F00022F0200242EA05120F4D104EA84201D0E3
:10320000B04206D1CF6822F0800242EA071222F0D3
:103210004002A84201D0B04207D14D6923F4406377
:1032200043EA85038D6943EA850343608461496805
:1032300081630262F0BD0000002C014000340140B7
:10324000F0B5026A22F480720262026A4368C469BD
:1032500022F4007224F073050C68124E2C438D6822
:1032600042EA05220E4DA84201D0B04206D1CF68F5
:1032700022F4006242EA072222F48062A84201D0CE
:10328000B04207D14D6923F4405343EA05138D69D9
:1032900043EA05134360C4614968C1630262F0BD3B
:1032A000002C01400034014030B5026A22F4805203
:1032B0000262046A4268C3690D6823F4E64343EA84
:1032C00005238D6824F4005444EA0534084DA842CF
:1032D00002D0084DA84204D14D6922F4804242EA4E
:1032E00085124260C36149680164046230BD000018
:1032F000002C01400034014010B5036A046A24F038
:1033000001040462846924F0F00444EA021423F006
:103310000A020A438461026210BD10B5036A23F0F9
:10332000100303628369046A23F4704343EA0232A0
:1033300024F0A00343EA01118261016210BD000084
:103340000148FFF743BA00002C06002010B5406A80
:103350000021C185C184FFF738FA10BD0168CA6831
:1033600022F49072CA6001684A6922F001024A613F
:10337000202180F83A10704710B590F83A102229B1
:1033800001D0022010BD8168B1F5805F11D00169C4
:10339000002901681FD0496801F07F03816A4A1C37
:1033A00082620B70C18D491E0904090CC18518D0B9
:1033B0002BE00269816A002A0268526805D0D2B205
:1033C0000A80816A491C8162ECE7C2F308020A8024
:1033D000816A891CF7E74A68816A4B1C83620A701C
:1033E000E0E70168CA6822F02002CA600168CA6882
:1033F00022F48072CA6001684A6922F001024A61BF
:10340000202180F83A10FFF711FB002010BD0000CA
:103410002DE9F041044600680169E26821F4405159
:10342000114301612169A06808436169084321686B
:10343000CA6841F20C639A430243CA60206841693A
:10344000A26921F44071114341614C49206864250F
:10345000322688423CD1FEF781FC00EBC00101EB33
:10346000001061688900B0FBF1F7FEF777FC00EB14
:10347000C00101EB00106168B0468900B0FBF1F0BB
:10348000B0FBF5F06FF01801484307EB800106EB45
:103490000110B0FBF5F000F0F006FEF75FFC00EB6A
:1034A000C00101EB001061688900B0FBF1F0B0FBD6
:1034B000F5F006EB0016FEF751FC00EBC00101EB46
:1034C000001061688900B0FBF1F7FEF747FC3BE0B4
:1034D000FEF734FC00EBC00101EB001061688900CD
:1034E000B0FBF1F7FEF72AFC00EBC00101EB001086
:1034F0006168B0468900B0FBF1F0B0FBF5F06FF009
:103500001801484307EB800106EB0110B0FBF5F012
:1035100000F0F006FEF712FC00EBC00101EB00101A
:1035200061688900B0FBF1F0B0FBF5F006EB001626
:10353000FEF704FC00EBC00101EB0010616889009C
:10354000B0FBF1F7FEF7FAFB00EBC00101EB001056
:1035500061688900B0FBF1F0B0FBF5F06FF0180185
:10356000484307EB800108EB0110B0FBF5F0216840
:1035700000F00F0030448860BDE8F0810038014061
:1035800090F83910212901D0022070478168B1F5E7
:10359000805F016A0BD04A1C0262026809785160A0
:1035A000C18C491E0904090CC1840ED017E009889A
:1035B0000268C1F30801516001690029016A02D063
:1035C000491C0162ECE7891CFBE70168CA6822F02C
:1035D0008002CA600068C16841F04001C1600020FB
:1035E00070472DE9F041984617460E460446069D61
:1035F0001DE0681C1BD02DB1FEF764F8A0EB08009D
:10360000A84214D92068C16821F4D071C160206833
:10361000416921F001014161202084F8390084F8DA
:103620003A00002084F838000320BDE8F0812068CB
:10363000006836EA000004D00020B842D9D000204B
:10364000F3E70120F9E700000148FFF7BFB80000E9
:103650006C060020FEE700000FB4054B10B503A96F
:10366000044A029800F0A8F810BC5DF814FB0000B2
:103670009138000820010020490050EAC12018BFFD
:1036800004204A0D18BF40F0010040F2FF72B2EB77
:10369000515F08BF40F00200012808BF05207047B5
:1036A0002DE9F0414F1E00EBC7010446D1E90001AE
:1036B00015461E4637F006020DD02A463346FCF763
:1036C0009BFE7F1E04EBC703D3E90023FDF79EF8A2
:1036D00037F00602F1D1022F25D0042F13D0062F88
:1036E00018BFBDE8F0812A463346FCF785FED4E9D1
:1036F0000A23FDF78BF82A463346FCF77DFED4E912
:103700000823FDF783F82A463346FCF775FED4E913
:103710000623FDF77BF82A463346FCF76DFED4E915
:103720000423FDF773F82A463346FCF765FED4E917
:103730000223FDF76BF82A463346FCF75DFED4E919
:103740000023BDE8F041FDF761B8000000221346F8
:1037500010460149FCF7C2BE0000F03FFDF756B825
:103760000022134610461146FCF7B8BE40F2013263
:1037700000204FF0E041FCF720BF0000024A00208B
:103780001107FCF71ABF000001FDFFFF02E008C8A7
:10379000121F08C1002AFAD170477047002001E0CB
:1037A00001C1121F002AFBD17047000001490860C7
:1037B00070470000240100202DE9F84F99469246F9
:1037C00088460546002706E025280AD051464A4685
:1037D00090476D1C7F1C28780028F5D13846BDE83D
:1037E000F88F002315F8011F18462E2915D115F85A
:1037F000011F04232A290DD06FF02F022978A1F18F
:103800003004092C09D800EB800002EB400008448A
:103810006D1CF3E758F8040B6D1C2A78002ADDD0E4
:10382000632A07D0732A0FD0104651464A46904764
:103830007F1C2AE018F8042B8DF8002000218DF859
:1038400001106E46012103E058F8046B4FF0FF3180
:103850005A074FF0000401D409E0641C84420BDADB
:103860008C42FADB325D002AF7D105E0641C8C4201
:10387000FCDB305D0028F9D1274404E016F8010B89
:1038800051464A469047641EF8D26D1CA3E70000DB
:1038900013B56423012269460248FFF7C8F800986F
:1038A0001CBD00002C0600202DE9F04790460E4676
:1038B0000546FCF7C5FE0446FCF796FE2946FCF7D4
:1038C00028FD814600223146204600F027F80446B4
:1038D000B8F1000F1ED02E2030554046FCF792FE66
:1038E00002460B4600200C4900F02EF907460D4613
:1038F0004846FCF7BEFE3A462B46FCF77DFDFCF73A
:10390000CBFEFCF79DFE31194246BDE8F047491C4D
:1039100000F004B8BDE8F0870000244030B50D4643
:1039200000240A2109E000BF90FBF1F301FB13031F
:1039300090FBF1F030332B55641C0028F4D130207B
:10394000944202DA2855641CFAE72146284601F021
:1039500003F800202855204630BD00008CB0FEF74B
:103960002DF8FFF748FBFFF713FA4E48416941F085
:10397000010141614069002200F001000A90052127
:103980000B20FEF77DF80B20FEF76EF8FFF7D6F957
:10399000464845494FF4E13500240160C0E901542F
:1039A0000C26C460C0E904468461C461FEF796FF3A
:1039B000FFF740FA3D483E49D43801603D49C0E92F
:1039C00001144FF48041C0E9034144618461C46142
:1039D0000462FDF77DFE3548374940300160C0E99B
:1039E0000154C460C0E904468461C461FEF776FFF7
:1039F000FFF75CFA01F014F84FF47A742046FDF7F3
:103A000051FD012000F0FCFF01F078F82046FDF7A1
:103A100049FD0221112001F06BF8284C002328A059
:103A2000D4E9001201F0F0F81421002001F060F850
:103A3000D4E90012002325A001F0E6F82821002097
:103A400001F056F8D4E90012002321A001F0DCF8BF
:103A500001F054F8154804218038FEF7AFFD1348F3
:103A60004038FEF7C9FB14221A496846FCF7D8FB18
:103A70000021684600F050F8174C16491422606186
:103A8000143105A8FCF7CCFB002105A800F044F890
:103A90000122A06111461148FDF70EFE00F02DF83D
:103AA000FEE7000000100240005000402C060020FD
:103AB00000580040A08601000044004000000020A3
:103AC0004C6F7261204D657465720000563D0000B8
:103AD000493D0000BC5E00081000002000100140BD
:103AE00001460020842900D0C81C704710B500B9D9
:103AF000012001F055F9002010BD10B501F076F954
:103B0000002010BD10B501F057FA012803D0BDE820
:103B1000104001F00FBA10BD3EB504460D46B0F995
:103B20000800FFF7DDFF02A9CDE90001208A2B463E
:103B300082B2D4E9001001F013FA012801D000206C
:103B40003EBD02983EBD00002DE9F04D1D460C46DD
:103B500098B0174621F0004123F00043002814BF1D
:103B60004FF0010C4FF0000C0CEB440CFE4A0CEB38
:103B700002064FEA620C66452BD33E0018BF0126B1
:103B800006EB45061644F94A964222D3F84A53EA10
:103B9000070C02D0944205D148B918B00020114654
:103BA000BDE8F08D002808BF4FF0000C01D04FF0A9
:103BB000010C0CEB440212F5001F0AD8002F14BFB1
:103BC0004FF0010C4FF0000C0CEB450212F5001FFA
:103BD00007D918B03A462B462146BDE8F04DFFF70D
:103BE000BDBD0022DFF88CA3002CB8BF534526DAF8
:103BF000DFF884C36345A8BF022220DADFF870C370
:103C00009C451CDCDFF874C30CEB235CBCF1140F87
:103C100008DDCCF1340627FA06FC0CFA06F6BE42A3
:103C20000DD108E05FB9CCF1140623FA06FC0CFABA
:103C300006F69E4203D10CF00102C2F1020251EAE3
:103C4000000C19D1002D17DA002C18BF022A01D060
:103C5000012A07D00220FFF7A9FD18B0BDE8F04DFA
:103C6000FFF774BD0220FFF7A1FDFFF76FFD18B04D
:103C700081F00041BDE8F08DB7F1000C6CD15345E7
:103C800025D104F1804212F5801201BF00280020E6
:103C9000B74918B008BFBDE8F08DB548884207DCC9
:103CA000002DA1BF6046294618B0BDE8F08D07E0A1
:103CB000281E05DA80F0004118B06046BDE8F08D9E
:103CC000AF497944D1E9000118B0BDE8F08DDFF8C3
:103CD000A0C2634525D1002D1FDA19B1514512D17B
:103CE000D8B909E0002840F0EC82A24A214618B079
:103CF00062F31E01BDE8F08D0020214618B060F38C
:103D00001E01BDE8F08D08DA18B02346BDE8F04D7D
:103D1000024600206146FCF7E1BB18B02146BDE831
:103D2000F08D514518DAB5F1804F0DD0A5F1005C4A
:103D3000BCF1FF5C10D1B4F1000C0DDB18B0614692
:103D4000BDE8F04D00F015BE234618B00246BDE8B0
:103D5000F04D1946FCF750BB060024F0004C3BD157
:103D6000D9B1514533D1002C06DD002DA1BF002073
:103D7000514618B0BDE8F08D002C01DD002D1BDB95
:103D8000002C13DA002D11DB012A4FF0000014BFC4
:103D900078497C4918B0BDE8F08D022A18BF002C84
:103DA0000AD0012A08D1002C06DA0AE0002CB8BF9C
:103DB000002D11DA012A04D0002018B00146BDE818
:103DC000F08D18B000204FF00041BDE8F08DA1F15A
:103DD0004050B0F17F601AD0012000EBE47050EA4F
:103DE000020421D0624C521E4FF0000B104304BF5E
:103DF0004FF0000B644C654883427CDD644A6548A3
:103E000093421FDD884217DB002D25DB37E0002CB5
:103E100000DA4AB1022A0CBF01204FF0FF3018B07F
:103E2000BDE8F04DFCF7EEBB0120FFF7BFFC18B07A
:103E3000BDE8F04DFFF794BC4D4A8A4202DC002DEC
:103E40000ADC1CE0814202DA002D18DA04E0484B5B
:103E5000994220DD002D12DD0220FFF7A7FCFFF7BD
:103E600085FC05460E460022534658462146FCF77F
:103E7000C3FA18B066F31E012846BDE8F08D022093
:103E8000FFF794FCFFF77AFC0A46214618B062F36C
:103E90001E01BDE8F08D002230466146FCF757FD5B
:103EA00080460E466FF00102FCF787FB4FF055325B
:103EB000394BFCF74FFD42463346FCF79DFA002292
:103EC000364BFCF747FD8246424633460491104686
:103ED0001946FCF791FA5246049BFCF78DFA8A4684
:103EE00000904FF0C0422E4B40463146FCF784FA1A
:103EF0002C4A2B4B00E027E0CDE906015146009803
:103F0000FCF77AFA82460191274A284B404631460F
:103F1000FCF772FA5246019BFCF719FD82460B46EC
:103F200002460591DDE90601FCF770FCDDE9062398
:103F3000002688463046FCF70AFD5246059BFCF7F2
:103F400009FD024600F07EB90020B1F5801F07DAB6
:103F5000352230466146FCF730FB06466FF03400F0
:103F600000EB215024E00000FFFF1F00FFFF0F00C7
:103F70000000F03F0000F07F0000404301FCFFFF25
:103F8000C22200000000F0FF0000F0BF0000E0418E
:103F90000000F043FFFFEF3F5555D53F0000E03FE5
:103FA0004715F73FFE822B6544DF5DF80BAE543EAC
:103FB000A0F2FF300190C1F3130040F07F6141F0A7
:103FC00040510291FE498842D8BF002004DDFD49DE
:103FD0008142C8BF012001DD0D9008E000200D9056
:103FE0000198401C01900298A0F58010029002995F
:103FF000F54878440B910D9900EBC100D0E90023FE
:104000000F9330460A920B99FCF7A1FCCDE906010B
:10401000DDE90A2130460F9BFCF7F8FB02460B4610
:104020000020EA49FCF75AFA059102460B46009037
:10403000DDE90601FCF7E0F91490E5488A464FF007
:10404000000878440299006812904FF0005040EA4E
:1040500061010D980F9B01EB804000F50021099153
:104060000A9A1298FCF773FC32460B9BFCF772FC21
:1040700042465346FCF7C0F9064602914046514677
:10408000099B129AFCF7B8F9DDE90623FCF762FCFC
:104090003246029BFCF75BFC059B009AFCF7ACF9EF
:1040A0000091149A0490534610461946FCF7A4F95F
:1040B00006460246C7480B46029106217844FFF7A0
:1040C000EFFACDE90510029B324610461946FCF77F
:1040D00093F9DDE90532FCF78FF905910646534661
:1040E00040461946149AFCF791FB009B049AFCF792
:1040F00083F93246059BFCF789FBCDE90510424662
:10410000534610461946FCF777F90022B24B02914C
:104110000A90FCF77BFBDDE90532FCF777FB0E46E6
:104120004246AD4B4046FCF712FC029B0A9AFCF754
:104130000EFCDDE90532FCF70DFC424602910A90C7
:10414000334610465146FCF757F9CDE90601534670
:10415000149A02990A98FCF74FF98A46029033465E
:10416000424600990498FCF747F95346029AFCF737
:104170004DFB82460B4602460591DDE90601FCF740
:1041800045FBDDE90623002088460646FCF7DFFBF9
:104190005246059BFCF7DEFB824609914FF06042D8
:1041A0008E4B30464146FCF727F9049006918C4A25
:1041B0008A4B50460999FCF71FF982460291894AB9
:1041C000894B30464146FCF717F95246029BFCF7F3
:1041D0001DFB864B7B440D9A03EBC203D3E90023FE
:1041E000FCF714FB0E9007910198FCF70BFA059170
:1041F000DDE9061382460E9A0498FCF707FB7C4A19
:104200007A440D9B02EBC303D3E90023009302928F
:10421000FCF7FCFA5246059BFCF7F8FA00268846A4
:1042200052463046059BFCF792FB009B029AFCF736
:104230008EFB069B049AFCF78AFB079B0E9AFCF701
:1042400089FB024600200B46029038462946FCF7BF
:10425000D3F8824601912B4638461946029AFCF75C
:1042600076FB32464346FCF7C7F85246019BFCF703
:10427000CDFA07468A463246434629460298FCF75D
:10428000BBF805460E463A465346FCF7BFFA594A74
:104290008846914221DBA8EB020353EA000210D1C9
:1042A0002A463346FCF753FBCDE90401524A534BEF
:1042B00038465146FCF7AAFADDE90423FCF79EFBD9
:1042C00021D20220FFF772FAFFF750FA0A46214680
:1042D00018B062F31E01BDE8F08D494B28F0004292
:1042E0009A4210D3474A08EB020353EA00027FF4D4
:1042F000C6AD2A463346FCF72AFB3A465346FCF73E
:104300007DFB7FF6BCAD0022019228F000403E49C3
:104310003E4A01EB2051824223DA481C4FF48011BF
:1043200021FA00F040443A4AC0F30A517A44394B2A
:10433000A1F2FF31CB4020EA0303C0F3130040F4A5
:104340008010C1F11401C84012680190B8F1000F4B
:10435000BCBF4042019028463146FCF7F8FA0546BA
:104360000E462A46334638465146FCF74FFA4FF080
:1043700000084246284B40460591FCF73DF8CDE940
:104380000601264A264B40460599FCF735F8009170
:1043900002902A46334640460599FCF7D8FA3A4639
:1043A0005346FCF7D7FA1F4A1F4BFCF725F8009B32
:1043B000029AFCF72BFA0746884602460B4635E080
:1043C0008E9803007AB60B000A1F00000000F03F31
:1043D000421F0000701E00000000084009C7EE3FA9
:1043E000FD033ADCF5015B14E02F3EBE481D0000E2
:1043F0000C1D000000009040FE822B654715973C85
:1044000000CC904000346F3F01FCFFFF0000E03F14
:10441000581C0000FFFF0F00432EE63F396CA80C2C
:10442000615C20BEEF39FAFE422EE63FDDE906016F
:10443000FCF7ECF9DDE9062305460E46FCF787FAA2
:104440003A464346FCF786FA0F462A463346009022
:1044500010461946FBF7D0FF824602462E48884692
:104460000B4605217844FFF71BF952464346FBF7FC
:10447000C3FF2A463346FCF76DFA80468A463B4620
:1044800028463146009AFBF7B7FF3B46009AFCF7F7
:10449000BDF90691009000224FF0804340465146FE
:1044A000FCF755FA0F460C904246534628463146D3
:1044B000FBF7A2FF3B460C9AFCF710F8069B009A0C
:1044C000FCF745FA2A463346FCF741FA0022134B23
:1044D000FCF740FA054601980E4601EB005108151D
:1044E000002810DC28463146019AFCF766F8FFF7F1
:1044F000C3F8042808BFFFF741F928463146019A5E
:10450000FCF75BF805460B4618B02A46584621468C
:10451000BDE8F04DFBF770BFF81A00000000F03F57
:104520002DE9F041184C0F460546E6682068001D4D
:1045300000F080FB38B9206890F82C1001208840EA
:10454000216981432161681C07D137B12168BDE829
:10455000F0410E48091D00F0A5BB20683544B54266
:104560004560216805D2A06BBDE8F041091D00F04F
:1045700081BB606B091D00F07DFBA06A854200D203
:10458000A562BDE8F0810000C0000020D80700202F
:104590002DE9F041054600F091FB2E4CA068401C2F
:1045A000A06020682C4F10B1606940B32DE02560F9
:1045B000A068012829D1002606EB860007EB8000C1
:1045C00000F04AFB761C072EF6D323488C3000F00F
:1045D00043FB2148A03000F03FFB1F48B43000F0FF
:1045E0003BFB1D48C83000F037FB1B48DC3000F0B7
:1045F00033FB19488C3060631430A06305E02068F9
:10460000E96AC06A884200D82560606A401C60621E
:10461000E96A0120226988401043206101EB810092
:1046200007EB8000291D00F03DFB00F067FB60698F
:1046300000280CD02068E96AC06A884207D207497E
:104640004FF080500860BFF34F8FBFF36F8FBDE80E
:10465000F0810000C0000020FC06002004ED00E016
:1046600070B5114E114C17E000F0F4FB3068B8B192
:1046700000F014FD00F022FBF068C568281D00F072
:10468000D9FAA068401EA0606068401E606000F01B
:1046900035FB284600F00CF860680028E4D170BDB6
:1046A00000F0FCFCF8E70000C4070020C000002078
:1046B00010B50446006B00F035FB2046BDE8104005
:1046C00000F030BB10484FF44061420706D0C01DD7
:1046D0000D4920F00700411AC1F540610B4A002343
:1046E0000144C2E900030839103A21F007011160C2
:1046F0004B600B600B1AC0E9001393604FF0004051
:104700005360D06070470000EC0700200C010020CF
:10471000074C4FF08056074DFFF7A2FF2068012895
:10472000FAD92E60BFF34F8FBFF36F8FF4E700000D
:10473000FC06002004ED00E02DE9F0479A46DDE993
:10474000098481466FF00303206B03EB820210445F
:10475000089D20F00706700707D0502080F31188CD
:10476000BFF34F8FBFF36F8FFEE723180A5C83F808
:1047700034200A5C12B1401C1028F6D3002784F8BC
:104780004370072D00D30625E562C4E91157201DAB
:1047900000F06DFA04F1180000F069FA2461C5F127
:1047A00007006462A061E76484F85070524649468D
:1047B000304600F0BFF82060B8F1000F01D0C8F813
:1047C0000040BDE8F087000030B5114900E0114617
:1047D0000A688242FBD34B685C18844203D140686C
:1047E00018444860084643681C18944209D1084C94
:1047F000103C2468A24209D052681A4442600A68F8
:1048000012680260814200D0086030BD0460F9E7A0
:104810000C0100200648416B096829B1416BC96849
:10482000C9684968816270474FF0FF31FAE70000BC
:10483000C000002008484068401C4FF0500080F342
:10484000118804D0BFF34F8FBFF36F8FFEE7BFF324
:104850004F8FBFF36F8FFEE7140100202DE9F04169
:104860000546002700F0F6FA314E306808B9FFF728
:1048700029FFF06805424BD1C5B3083568070ED053
:1048800005F00700C0F108000544680707D0502074
:1048900080F31188BFF34F8FBFF36F8FFEE72DB307
:1048A0007068854234D82248103001460C6801E017
:1048B00020460C466168A94202D221680029F7D13E
:1048C00031688C4224D0076821680160606808372D
:1048D000411B10290FD96019420708D0502080F3DE
:1048E0001188BFF34F8FBFF36F8FFEE710E0416079
:1048F0006560FFF769FF61687068401A7060B268B0
:10490000904200D2B060F06801430020C4E9000189
:1049100000F0C4FB780707D0502080F31188BFF364
:104920004F8FBFF36F8FFEE73846BDE8F081000080
:10493000FC00002010B5031F4FF080741C601B1F8B
:1049400021F001011960191F024B0B601439403826
:104950000A6010BD3548000810B50022491E05E068
:10496000835C445C84544354491E521C8A42F7DBE6
:1049700010BD2DE9F04106460F46FBF7EEFF041E81
:104980000D4618BF0120284320F00040C0F17F6091
:1049900000F1E040C00F0ED0301C18BF012038439A
:1049A00020F00040C0F17F6000F1E040C00F04BF84
:1049B0000120FEF7FBFE20462946BDE8F0810000FD
:1049C00070B5802813D2402911D20B4B012401F07D
:1049D00007051E79AC40094BC90800EBC1100EB1A8
:1049E00032B101E0012A03D0195CA143195470BD12
:1049F000195C2143FAE7000008000020280100208C
:104A000010B5064A00214FF4806328B1FF245454A6
:104A1000491C9942F9D310BD0024F8E72801002071
:104A200010B56420FCF73EFDAE2000F0DBF820203E
:104A300000F0D8F8102000F0D5F8B02000F0D2F83F
:104A4000C82000F0CFF8002000F0CCF8102000F0D3
:104A5000C9F8402000F0C6F8812000F0C3F8FF201C
:104A600000F0C0F8A12000F0BDF8A62000F0BAF8D0
:104A7000A82000F0B7F83F2000F0B4F8A42000F020
:104A8000B1F8D32000F0AEF8002000F0ABF8D5204C
:104A900000F0A8F8F02000F0A5F8D92000F0A2F866
:104AA000222000F09FF8DA2000F09CF8122000F09D
:104AB00099F8DB2000F096F8202000F093F88D2084
:104AC00000F090F8142000F08DF8AF2000F08AF884
:104AD0000020FFF795FF00F011F804480021018045
:104AE000418001214171084610BD000008000020EE
:104AF000014A10805180704708000020FEB5002454
:104B000064250F4F802600BF04F1B000C0B200F052
:104B100069F8002000F066F8102000F063F807EB59
:104B2000C410CDE9000601234022782102950548F2
:104B3000FCF76EFE641CE4B2082CE5D3FEBD000059
:104B400028010020580500202DE9FF4F8346244806
:104B50009246CEB202883244802A06D281464088EC
:104B6000C1F307273844402803D3002004B0BDE830
:104B7000F08F002528E000BFABF1200000FB0750BC
:104B800000243AF810801CE008FA04F0000409D56B
:104B900099F8021099F8000029442044C9B2C0B223
:104BA000039A0BE00398C0B15FF0000299F802107D
:104BB00099F8000029442044C9B2C0B2FFF700FFB1
:104BC000641CA642E0D86D1CAF42D5D8B9F80010DD
:104BD00058463144A9F80010C8E70122E6E7000072
:104BE0000800002001B584B001210A2204A88DE844
:104BF00007000B46002278210248FCF709FE05B0A9
:104C000000BD000058050020F0B51D460E461746B1
:104C100004460AE02B463A463146FFF795FF2178D5
:104C2000884201D0C8B2F0BD641C20780028F1D1C0
:104C3000C0B2F0BDD0E9013201699A60D0E9012328
:104C40005A604A68824201D182684A600022026149
:104C50000868401E0860704700F108014FF0FF32FD
:104C6000C0E90112C16001610021016070470021AB
:104C70000161704730B50B685A1C02D000F1080280
:104C800002E0026904E02246546825689D42FAD990
:104C900053684B6099608A60516008610168491CE3
:104CA000016030BD42684A6093688B6093685960C8
:104CB000916008610168491C01607047502080F3D1
:104CC0001188BFF34F8FBFF36F8F0A494868401CAC
:104CD000486001280CD10848006810F0FF0F07D089
:104CE000502080F31188BFF34F8FBFF36F8FFEE723
:104CF000704700001401002004ED00E008494868F6
:104D000028B1401E486001D180F3118870475020BF
:104D100080F31188BFF34F8FBFF36F8FFEE7000062
:104D20001401002070B5002827D0144DA0F108040C
:104D30006168E868014207D1502080F31188BFF311
:104D40004F8FBFF36F8FFEE722683AB1502080F398
:104D50001188BFF34F8FBFF36F8FFEE78143616010
:104D600000F078F860686968084468602046FFF7DA
:104D70002BFDBDE8704000F091B970BDFC00002033
:104D800006484FF47A710068B0FBF1F14FF0E02073
:104D9000491E41610721016170470000BC000020ED
:104DA00010B5020014D00F48006B38B1502080F3CA
:104DB0001188BFF34F8FBFF36F8FFEE700F04AF803
:104DC00000211046FFF7ACFB00F068F9002807D17E
:104DD00005494FF080500860BFF34F8FBFF36F8FCE
:104DE00010BD0000C000002004ED00E01CB5154817
:104DF0000024CDE900402346802213A1144800F08E
:104E0000AFF8012809D0401C1AD1502080F3118836
:104E1000BFF34F8FBFF36F8FFEE7502080F31188F1
:104E2000BFF34F8FBFF36F8F06484FF0FF312C3821
:104E3000816201214161C460BDE81C4000F040B8BE
:104E40001CBD0000EC00002049444C45000000005F
:104E5000114700080248016B491C016370470000BC
:104E6000C00000201448016B11B10121C1617047DD
:104E70000021C1610169B1FA81F1C1F11F0101EBAA
:104E800081020E4951F822306BB101EB820101F130
:104E900008034A6852684A609A4201D152684A60DF
:104EA000D16801607047502080F31188BFF34F8FA5
:104EB000BFF36F8FFEE70000C0000020FC0600205B
:104EC0001CB5194908780190FF20087008788DF802
:104ED00000009DF80000154A00F0500010700720F7
:104EE000906005E09DF800305B008DF80030401EBA
:104EF0009DF800301B06F5D4000200F4E0609060DD
:104F0000019808700A48016841F470010160016865
:104F100041F070410160FFF733FF00205060FBF764
:104F200023F900201CBD000000E400E01401002073
:104F300020ED00E010B5502080F31188BFF34F8FB3
:104F4000BFF36F8F00F046F818B104494FF080505E
:104F50000860002080F3118810BD000004ED00E01F
:104F60002DE9FF5F8346DDE90E87994616468A469E
:104F70009000FFF773FC05001AD05420FFF76EFC79
:104F8000040012D025630021CDE90241CDE900875C
:104F90004B46324651465846FFF7CEFB2046FFF7B8
:104FA000F7FA012004B0BDE8F09F2846FFF7BAFEEB
:104FB0004FF0FF30F6E700000548416919B1006B7A
:104FC00018B1002070470120704702207047000090
:104FD000C00000202DE9F0412E4C0027206B40B18D
:104FE000A069401CA061E06900B101273846BDE816
:104FF000F081E668761CE66013D1606B006838B11A
:10500000502080F31188BFF34F8FBFF36F8FFEE7FF
:10501000606BA16B6163A063206A401C2062FFF794
:10502000F9FBA06ADFF87080864209D3606B0068E4
:1050300080B1606BC068C568686886420DD2A062A6
:105040002068C06A00EB800158F821000128CAD905
:105050000127C8E74FF0FF30F1E7281DFFF7EAFD11
:10506000A86A18B105F11800FFF7E4FDE86A01210C
:10507000226981401143216100EB800108EB81002E
:10508000291DFFF70FFEE86A2168C96A8842CDD35F
:105090000127CBE7C0000020FC0600202DE9F047E7
:1050A0002C4D00242746286B38B1FFF707FE286BEC
:1050B000401E2863286B40B146E0502080F31188E1
:1050C000BFF34F8FBFF36F8FFEE7A968224E012019
:1050D000D1B3A6F1B40980463068E8B1F068C4687D
:1050E00004F11800FFF7A6FD201DFFF7A3FDE06AFD
:1050F0002A6908FA00F11143296100EB800109EBEC
:105100008100211DFFF7CEFDE06A2968C96A884247
:10511000E2D3C5F81C80DFE70CB1FFF77BFBAC697D
:1051200044B14646FFF756FF00B1EE61641EF9D167
:105130000020A861E86938B10849012738070860EC
:10514000BFF34F8FBFF36F8FFFF7D8FD3846BDE831
:10515000F0870000C0000020B007002004ED00E050
:10516000000000000000000000000000000000003F
:10517000000000000000000000000000000000002F
:10518000000000000000000C000C000C000C000CE3
:10519000000C000C000C000C000C000C0000000CBB
:1051A000000C0000000000000000001B001B001BA2
:1051B000001B001B000000000000000000000000B9
:1051C0000000000000000000000000000000801946
:1051D000801980198019C07FC07F80190033C07F7B
:1051E000C07F0033003300330033000000000000B4
:1051F0000000001E003F807580650074003C001EAA
:1052000000078005806580658075003F001E0004F2
:10521000000400000000007000D840D8C0D880D939
:1052200000730006000C801BC036C066C046C00676
:1052300080030000000000000000001E003F00335B
:1052400000330033001E000CC03CC06680638061E8
:105250008063C03E801C0000000000000000000CC5
:10526000000C000C000C000C00000000000000000E
:10527000000000000000000000000000000000002E
:10528000800000010003000600060004000C000C72
:10529000000C000C000C000C0004000600060003CB
:1052A00000018000002000100018000C000C000419
:1052B0000006000600060006000600060004000CBA
:1052C000000C0018001000200000000C002D003F12
:1052D000001E00330000000000000000000000007D
:1052E00000000000000000000000000000000000BE
:1052F0000000000C000C000C000CC0FFC0FF000CF4
:10530000000C000C000C0000000000000000000079
:10531000000000000000000000000000000000008D
:1053200000000000000000000000000C000C000461
:105330000004000800000000000000000000000061
:10534000000000000000001E001E00000000000021
:10535000000000000000000000000000000000004D
:10536000000000000000000000000000000000003D
:105370000000000C000C0000000000000000000312
:10538000000300030006000600060006000C000CE7
:10539000000C000C001800180018000000000000AD
:1053A0000000001E003F0033806180618061806DDD
:1053B000806D8061806180610033003F001E0000CD
:1053C0000000000000000006000E001E003600264F
:1053D000000600060006000600060006000600069D
:1053E00000060000000000000000001E003F807367
:1053F00080618061800100030006000C001800300D
:105400000060807F807F0000000000000000001C22
:10541000003E006300630003000E000E00038001E5
:10542000800180618073003F001E000000000000CA
:1054300000000006000E000E001E001E00160036C2
:1054400000360066807F807F0006000600060000B0
:10545000000000000000007F007F0060006000602E
:10546000006E007F80638001800180618073003F57
:10547000001E0000000000000000001E003F8033FE
:1054800080610060006E007F807380618061806158
:105490008033003F001E0000000000000000807FFD
:1054A000807F80010003000300060006000C000C52
:1054B000000C000800180018001800000000000090
:1054C0000000001E003F8063806180610021001E9B
:1054D000003F8061806180618061003F001E0000AC
:1054E000000000000000001E003F0073806180612A
:1054F00080618073803F801D800180610073003F68
:10550000001E00000000000000000000000000007D
:105510000000000C000C0000000000000000000073
:105520000000000C000C0000000000000000000063
:105530000000000000000000000C000C0000000053
:10554000000000000000000C000C00040004000833
:10555000000000000000000080008003000E003802
:1055600000600038000E8003800000000000000092
:105570000000000000000000000000000000807F2C
:10558000807F00000000807F807F0000000000001E
:10559000000000000000000000000000000000000B
:1055A00000400070001C000780010007001C007014
:1055B0000040000000000000000000000000001F8C
:1055C000803FC071C060C000C00180030007000EB2
:1055D000000C000C0000000C000C0000000000009B
:1055E0000000001E003F803180718063806F806DFD
:1055F000806D806F806700600032003E001C0000FC
:10560000000000000000000E000E001B001B001B2D
:10561000001B80318031803F803F8031C060C0609E
:10562000C0600000000000000000007C007E0063FD
:10563000006300630063007E007E00638061806120
:105640008063007F007E0000000000000000001E5C
:10565000003F803180610060006000600060006099
:10566000006080618031003F001E000000000000EB
:105670000000007C007F0063806380618061806146
:1056800080618061806100630063007E007C0000B7
:10569000000000000000807F807F006000600060EC
:1056A0000060007F007F0060006000600060807F1D
:1056B000807F0000000000000000807F807F00608D
:1056C000006000600060007F007F0060006000609C
:1056D0000060006000600000000000000000001E8C
:1056E000003F803180610060006000608063806303
:1056F000806180618031803F001E0000000000005A
:105700000000806180618061806180618061807F54
:10571000807F806180618061806180618061000044
:10572000000000000000003F003F000C000C000CD7
:10573000000C000C000C000C000C000C000C003FD6
:10574000003F000000000000000080018001800197
:105750008001800180018001800180018061806181
:105760008073003F001E0000000000000000C060C9
:105770008061006300660066006C0078007C006653
:105780000066006380618061C0600000000000006E
:105790000000006000600060006000600060006069
:1057A00000600060006000600060807F807F00001B
:1057B000000000000000C071C071C07BC07AC06AE8
:1057C000C06AC06EC064C060C060C060C060C060BD
:1057D000C0600000000000000000807180718079CE
:1057E00080798079806D806D806D8065806780674D
:1057F0008067806380630000000000000000001EDE
:10580000003F0033806180618061806180618061E0
:10581000806180610033003F001E00000000000036
:105820000000007E007F8063806180618061806312
:10583000007F007E0060006000600060006000008B
:10584000000000000000001E003F00338061806106
:105850008061806180618061806580670033803F06
:10586000401E0000000000000000007E007F8063FA
:10587000806180618063007F007E0066006300635A
:1058800080618061C0600000000000000000000E28
:10589000001F8031803100300038001E0007800377
:1058A000806180618031003F001E00000000000028
:1058B0000000C0FFC0FF000C000C000C000C000C2E
:1058C000000C000C000C000C000C000C000C000084
:1058D0000000000000008061806180618061806163
:1058E0008061806180618061806180618073003F40
:1058F000001E0000000000000000C060C060C0602A
:10590000803180318031001B001B001B001B000E0A
:10591000000E000E00040000000000000000C0C0E7
:10592000C0C0C0C0C0C0C0C0C0CC804C804C805E75
:10593000805280528073806180610000000000000E
:105940000000C0C0806080610033003B001E000C7E
:10595000000C001E001F003B80718061C0C0000071
:10596000000000000000C0C080618061003300338F
:10597000001E001E000C000C000C000C000C000CA3
:10598000000C0000000000000000803F803F80010C
:10599000000300030006000C000C00180018003083
:1059A0000060807F807F000000000000000F000F7B
:1059B000000C000C000C000C000C000C000C000C87
:1059C000000C000C000C000C000C000C000F000F71
:1059D0000000001800180018000C000C000C000C4F
:1059E0000006000600060006000300030003000096
:1059F00000000000001E001E000600060006000653
:105A00000006000600060006000600060006000666
:105A100000060006001E001E0000000C000C001E08
:105A2000001200330033806180610000000000003C
:105A30000000000000000000000000000000000066
:105A40000000000000000000000000000000000056
:105A5000000000000000000000000000E0FF000067
:105A6000000000380018000C0000000000000000DA
:105A70000000000000000000000000000000000026
:105A80000000000000000000000000000000001FF7
:105A9000803F80618001801F803F80618063807FC4
:105AA000C0380000000000000000006000600060DE
:105AB0000060006E007F8073806180618061806122
:105AC0008073007F006E00000000000000000000F6
:105AD000000000000000001E003F80738061006035
