:020000040800F2
:1000000090170020DD010008632E0008532A000825
:10001000612E0008CD0B0008A53500080000000087
:100020000000000000000000000000004501000882
:10003000070C00080000000089010008392F0008A3
:10004000F7010008F7010008F7010008F7010008B0
:10005000F7010008F7010008F7010008F7010008A0
:10006000F7010008F7010008F7010008D10B0008AC
:10007000F7010008F7010008F7010008F701000880
:10008000F7010008F7010008F7010008F701000870
:10009000F7010008F7010008F7010008F701000860
:1000A000F7010008F7010008F7010008F701000850
:1000B000F7010008F7010008F12F0008F701000818
:1000C000F7010008F7010008F7010008F701000830
:1000D000F7010008F701000899350008F70100084A
:1000E000F7010008F7010008F7010008F701000810
:1000F000F7010008F7010008F7010008F701000800
:10010000F7010008F7010008F7010008F7010008EF
:10011000F701000891320008F7010008F701000814
:10012000F7010008F7010008F7010008F7010008CF
:10013000DFF80CD000F0A0FC00480047C13E0008EA
:1001400090170020224B19680868B0E8F00F80F380
:100150000988BFF36F8F4FF0000080F311884EF0D5
:100160000D0E70470000000006480068006880F32C
:10017000088862B661B6BFF34F8FBFF36F8F00DFA1
:1001800000BF00BF08ED00E0EFF30980BFF36F8F01
:100190000F4B1A6820E9F00F106008B54FF05000BF
:1001A00080F31188BFF34F8FBFF36F8F04F0DAFA3B
:1001B0004FF0000080F31188BDE808401968086816
:1001C000B0E8F00F80F30988BFF36F8F704700BF6E
:1001D00070000020EFF3058070470000064880475C
:1001E00006480047FEE7FEE7FEE7FEE7FEE7FEE71C
:1001F000FEE7FEE7FEE7FEE7A92F00083101000851
:10020000202A04DB203A21FA02F00021704721FA6B
:1002100002F3D040C2F120029140084319467047D2
:1002200040EA01039B0703D009E008C9121F08C078
:10023000042AFAD203E011F8013B00F8013B521EF8
:10024000F9D27047D2B201E000F8012B491EFBD26F
:1002500070470022F6E710B513460A4604461946D1
:10026000FFF7F0FF204610BDF0B480EA0102D40F82
:100270004200B2EB410F02D20246084611464A0044
:1002800042D0C30DDDB2C1F3C752AD1A202D35DA0D
:10029000C1F3160141F4000204B15242C5F1200637
:1002A00002FA06F12A411044B3EBD05F23D0C4B167
:1002B000012DA0EBC35009DCF0BC4FF0004202EA74
:1002C000C352DBB200F5000000F0C9BA400000F1F3
:1002D000807000EBC350A0F1807040EAD1704900FB
:1002E00009E0490841EAC071A0EBC35000F50000E5
:1002F000400800EBC350F0BC00F0A8BA61420122F4
:1003000002EB4101001BF6E7F0BC704781F00041B1
:10031000AAE780F00040A7E780EA010210B502F0EA
:100320000043400022D04A001FD0010E01EB1261B1
:10033000C0F35600C2F3560240F4000042F400023B
:10034000A0FB022000047F39140400D0401C50EAB6
:10035000124001D44000491EC2B20C0604EBD0107A
:10036000401C4008802A02D003E0002010BD20F08D
:100370000100002900DA0020184310BD2DE9FE4FCE
:10038000804681EA0300C00F0C46009021F0004136
:1003900023F00045B8EB0200A94105D240462146B2
:1003A00090461C460B46024623F00040104347D0BF
:1003B000270DC7F30A00C3F30A510290401A0190B7
:1003C00040286BDAC3F3130040F4801B0098924678
:1003D00020B10023D2EB030A63EB0B0B01985946C3
:1003E000C0F14002504600F010FA06460D46504655
:1003F0005946019A00F018FA10EB080061410024F8
:1004000087EA115284EAE7731A4340D0009A62B334
:10041000019A012A4FEA075215DC001B61EB020129
:100420004FF0004202EA0752CDE90042001C41F5BC
:10043000801132462B4600F04FFA03B0BDE8F08F32
:1004400040462146F9E7001B61EB0201001C41F523
:10045000801300185B412018A2F5001747EB030139
:1004600040EAD570B6196D4111E06D084FEA3606C5
:1004700045EAC0754FEA0752001B61EB0201001C00
:1004800041F5801149084FEA3000001951413246C8
:100490002B4603B0BDE8F04F00F00FBA00980122E0
:1004A00040000023D0EB020263EBE073009821468A
:1004B0004FEAE074B8EB000061EB0401E9E783F078
:1004C00000435BE781F0004158E72DE9FE4F81EAE8
:1004D000030404F0004421F0004100944FF0000BAD
:1004E00023F0004350EA01045ED052EA03045BD0DB
:1004F000C3F30A54C1F30A552C44A4F2F334019413
:10050000A0FB0254C1F3130141F48011C3F31303A0
:1005100043F4801301FB024400FB034E840A970A54
:1005200044EA815447EA8357A4FB076802958D0A81
:1005300005FB07854FEA932C04FB0C542705029D0D
:100540004FEA065847EA1637B5EB08056EEB070C7D
:10055000870E920E47EA811742EA8312A7FB020137
:10056000B6EB0B0164EB00042B0D43EA0C335E1871
:1005700044EB1C50DA465146E7FB0201C5F3130475
:100580004FEA0B3343EA14534FEA0432019C43EA27
:100590000603A4F10C040294009CCDE900B400F021
:1005A0009BF903B0BDE8F08F00200146F9E72DE983
:1005B000F04D81EA030404F0004B21F0004514469D
:1005C0004FF0000A23F0004150EA050220D054EA1F
:1005D00001021DD0C5F30A570246C5F31303C1F348
:1005E0001300C1F30A5640F4801543F48013A7EBBF
:1005F0000608101BD64608F2FD3873EB050002D33F
:1006000008F1010801E092185B41B8F1000F03DA2C
:1006100000200146BDE8F08D00204FF48011064611
:1006200084460EE0171B73EB050705D3121B63EB23
:10063000050306434CEA010C49084FEA30009218C2
:100640005B4150EA0107EDD152EA030012D082EA81
:10065000040083EA0501084305D0101BAB4106D214
:100660000122002306E000224FF0004302E06FF079
:10067000010253101AEB06004CEB085110EB0A0074
:1006800041EB0B01BDE8F04D00F017B970B521F05A
:10069000004303430CD0C1F30A550024D5EB0405F5
:1006A00064EB0403D617AD1AB34102DB0020014608
:1006B00070BD201841EB025170BDC10F80EAE0709F
:1006C0000844CA079623002100F0C9B80EB5C10F2F
:1006D00080EAE0700844CA07002140F233438DE805
:1006E0000E000A460B4600F0F7F803B000BD0EB549
:1006F00040F2334102910021CDE900110A460B4638
:1007000000F0EAF803B000BD00F0004230F0004015
:100710000AD0C10D01F56071C0F3160042EA015123
:10072000C20840071143704700200146704701F09E
:10073000004330B421F0004150EA010206D00A0D16
:10074000A2F56072C1F31301002A02DC30BC002064
:100750007047440F44EAC104C100E01830BC00EB0C
:10076000C25000F073B80000002801DBC0F1004067
:10077000002901DBC1F100418842704730B50B46CA
:10078000014600202022012409E021FA02F59D42C1
:1007900005D303FA02F5491B04FA02F52844151E95
:1007A000A2F10102F1DC30BD2DE9F05F0546002029
:1007B00092469B4688460646814640241BE02846D2
:1007C000414647462246FFF71BFD53465A46C01A8C
:1007D000914110D311461846224600F016F82D1A02
:1007E00067EB01084F4622460120002100F00DF87A
:1007F00017EB00094E41201EA4F10104DFDC48463E
:1008000031462A464346BDE8F09F202A04DB203AC1
:1008100000FA02F1002070479140C2F1200320FA53
:1008200003F3194390407047202A06DBCB17203A88
:1008300041FA02F043EAE07306E041FA02F3D040E5
:10084000C2F1200291400843194670470029A8BF11
:100850007047401C490008BF20F00100704710B4E9
:10086000B0FA80FC00FA0CF050EA010404BF10BC9E
:10087000704749B1CCF1200421FA04F411FA0CF1CB
:1008800018BF012121430843A3EB0C01CB1D4FEA04
:1008900000614FEA102042BF002010BC704700EBFF
:1008A000C35010440029A4BF10BC7047401C49002D
:1008B00008BF20F0010010BC704710B5141E73F182
:1008C000000408DA401C41F1000192185B411A4310
:1008D00001D120F0010010BD2DE9F04D92469B465C
:1008E00011B1B1FA81F202E0B0FA80F22032904602
:1008F000FFF78BFF04460F4640EA0A0041EA0B016E
:1009000053465A46084313D0114653EA010019D002
:10091000C8F140025046FFF773FC05460E465046AC
:1009200059464246FFF771FF084305D0012004E015
:1009300020463946BDE8F08D0020054346EAE076C2
:100940002C4337430A986305E40AA0EB0800002211
:10095000FD0A44EA47540A3002D500200146E9E77F
:10096000010510196941DDE9084500196941BDE833
:10097000F04DA2E72DE9F04D00231A461B1A8A41DB
:1009800003DB00200146BDE8F08DC1F30A52C1F33C
:10099000130141F480154FF0000BD10702D100186C
:1009A0006D41521E0027044640F2FF11384601EB0C
:1009B000620A3E468046024600204FF48011FFF74F
:1009C0001FFCC2197141BB1846EB0100B4EB030CCC
:1009D00075EB000C04D3E41A65EB000517460E46D0
:1009E000241908F101006D4180463428E3DDF9192E
:1009F00046EB0600091BA84103D24FF0FF32134615
:100A000001E0002213461BEB070046EB0A51BDE84C
:100A1000F04DFFF752BFC1F30A52C1F3130140F288
:100A2000FF3341F480119A4202DA002001467047F8
:100A300040F233439A42A2F2334202DC5242FFF7C1
:100A4000DFBBFFF7E2BE000030B5041E71F1000409
:100A500004DB4FF00044404264EB0101141E73F1CB
:100A6000000405DB1C464FF00043524263EB0403D5
:100A7000994208BF904230BD064C074D06E0E06841
:100A800040F0010394E8070098471034AC42F6D3D5
:100A9000FFF752FBB84A0008D84A000870B5044670
:100AA00000688168C943C9071CD1816821F0010130
:100AB000816000F0F9FD05460FE000BF00F0F4FD95
:100AC000401B022809D9A06A40F01000A062E06A29
:100AD00040F00100E062012070BD20688068C043E2
:100AE000C007EBD0002070BD10B50146406A826A95
:100AF00012F0500F05D0006A026BBDE810400846A6
:100B00001047816A41F40071816201688968C1F30C
:100B1000424107290CD1C16851B9816A21F4807121
:100B20008162816AC90403D4816A41F00101816252
:100B300000F0EAF810BD10B5406A816A41F040014A
:100B40008162C16A41F00401C16200F0DFF810BDAA
:100B500010B5406A00F0D9F810BD0000F8B50026C5
:100B60000446009600688168C943C90728D0816897
:100B700041F001018160134813490068B0FBF1F0B6
:100B800000E0401E00900028FBD100F08DFD0546DE
:100B900011E000BF00F088FD401B02280BD9A06ABD
:100BA00040F01000A062E06A40F00100E06284F8CA
:100BB00024600120F8BD20688068C043C007E9D1E7
:100BC0000020F8BD6C00002040420F00FEE700004E
:100BD000014800F0D1BA00005C06002030B590F862
:100BE00040500124AC40C56B6C600468636043688E
:100BF000102B036803D099600068C26030BD9A6012
:100C00000068C16030BD704770470000F8B500242F
:100C1000009490F824202546012A12D0012280F861
:100C200024204A681F23072A0DD20668776B521EBC
:100C300002EB820293409F430B6893401F4377630C
:100C400019E00220F8BD06680D2A0AD2376BD21FC0
:100C500002EB820293409F430B6893401F4337632C
:100C600009E0F76A0D3A02EB820293409F430B685A
:100C700093401F43F7620A68072306680A2A0AD3CB
:100C8000F7680A3A02EB420293409F438B68934015
:100C90001F43F76008E0376902EB420293409F432D
:100CA0008B6893401F4337610A68102A01D0112ACC
:100CB00020D1124B02689A4217D193681B0219D4B3
:100CC000936843F4000393600968102912D10C491A
:100CD0000C4A0968B1FBF2F101EB8101490000E027
:100CE000491E00910029FBD104E0816A41F02001F6
:100CF0008162012480F824502046F8BD0024014080
:100D00006C00002040420F007047704770470000A1
:100D10002DE9F04104004FF000057FD0A06A0026C5
:100D200028B9E66284F82460204600F081F8204665
:100D3000FFF7B4FEA16AC90600D420B1A06A40F052
:100D40001000A0626AE0A16A21F4885141F002011A
:100D5000A162334923688B42E16904D1B1F5402F88
:100D600001D14FF40021E7684FF4807C41EA47024B
:100D700061680A43A168614508D0012906D00021B5
:100D8000D4F814E0BEF1010F02D00AE06146F7E7A3
:100D9000C7B1A76A47F02007A762E76A47F00107D3
:100DA000E7625F6827F469470F435F6023689968CB
:100DB0001C4F394011439960A16861450BD001294E
:100DC00009D00CE0DFF860E0A7690EEB47370F436E
:100DD00047F40061E5E7218A0D05A5F58015216836
:100DE000CB6A23F470032B43CB62216889680F4BD5
:100DF0001940914208D1E662A16A21F0020141F056
:100E00000101A162BDE8F081A06A20F0020040F07B
:100E10001000A062E06A40F00100E0620120F1E70A
:100E2000003C0140FDF7E1FF00E0FFFFFE0E1FFF69
:100E300070B586B00025064600950195029503958C
:100E400000681A4988422ED11949886940F4007017
:100E50008861886900F400700490886940F004009B
:100E600088618869694600F0040004903020009091
:100E7000032001900F4800F019FB104C0E48C4E904
:100E800000058020C4E902504000206180006061BC
:100E90002020C4E90605204600F092FA08B1FFF7C9
:100EA000B3FE3462666206B070BD000000240140EB
:100EB0000010024000080140080002405C060020CB
:100EC0002DE9F047894604463B4900683B4F0E1D1B
:100ED0009046884201D0B84207D1306810F4702F94
:100EE00003D001252846BDE8F08794F824000128A6
:100EF0000CD0012084F824002046FFF72FFE0500C7
:100F00004FF0000004D084F82400EBE70220EAE769
:100F1000A16A40F60162914341F48071A1622168A7
:100F2000B94218D1326812F4702F14D0A16A41F47A
:100F30008011A1623168490505D5A16A21F40051EB
:100F400041F48051A162A16AC9040AD5E16A21F085
:100F50000601E16206E0A26A22F48012A2624968F8
:100F6000E9E7E06284F82400216A15488862216A72
:100F70001448C862216A1448086321686FF00200AF
:100F800008602068816841F480718160216843466F
:100F90004A464C31206A00F051FA20688168C1F35A
:100FA00042410729816803D041F48011816099E7AB
:100FB00041F4A001FAE700000024014000280140AC
:100FC000E90A0008510B0008370B000810B5044669
:100FD00090F82400012807D0012084F8240020463E
:100FE000FFF75CFD10B10EE0022010BD20688168A3
:100FF00021F480718160206A00F00EF8A16A30B19E
:1010000041F04001A162002184F8241010BD21F4B8
:10101000885141F00101F5E701680A6822F00E02EB
:101020000A6001680A6822F001020A6090F8402014
:10103000C36B012101FA02F25A6080F821100021ED
:1010400080F82010084670472DE9F05F90F82110D5
:101050000024022903D004218163012485E0016872
:101060000A6822F00E020A6001680A6822F0010292
:101070000A603F4E3E4FB215DFF8F4C0DFF8F09043
:10108000DFF8ECA0DFF8E8B0DFF8E4E00168783FD3
:1010900013011502ACF1640CA9F15009AAF13C0A44
:1010A000ABF1280BAEF1140E4FF48018B14227D9E2
:1010B000B9420ED0614512D049451DD0514518D0D6
:1010C000594518D0714501D1424615E0294EB1422B
:1010D00001D1012210E0274E1436B14201D1102275
:1010E0000AE0244E2836B14206D0224A3C329142D0
:1010F00001D11A4600E02A461E49091F0A602BE06A
:10110000B94213D0614517D0494522D051451DD071
:1011100059451DD0714501D142461AE0B14202D174
:101120004FF0807215E0134EB14201D1012210E060
:10113000104E1436B14201D110220AE00D4E28366D
:10114000B14206D00B4A3C32914201D11A4600E02E
:101150002A46074980394A60012180F82110002180
:1011600080F82010416B01B188472046BDE8F09F10
:1011700080000240080402402DE9F05FC16B0A685C
:1011800001680B68046C4FF0040808FA04F8844DF9
:10119000844E854FDFF814C2DFF81492DFF814A2F2
:1011A000DFF814B2DFF814E218EA020F65D05FEA44
:1011B000437862D50A68920603D40A6822F00402D2
:1011C0000A60DFF8F0814FF48062016808F11408CA
:1011D00013011402414524D9A9420DD0B1420FD0C8
:1011E000B9421AD0614515D0494515D0514501D1B4
:1011F000120312E0594501D104220EE0714501D1DC
:1012000040220AE06D4D1435A94206D06B4A2832BF
:10121000914201D11A4600E022466749091F0A603F
:1012200029E0A94213D0B14215D0B94220D061457E
:101230001BD049451BD0514502D14FF4800217E025
:10124000414502D14FF0806212E0594501D104229C
:101250000EE0714501D140220AE0584D1435A942F3
:1012600006D0564A2832914201D11A4600E0224661
:101270004B4908394A60C16A71E04FF0020808FA28
:1012800004F818EA020F70D05FEA83786DD50A6817
:10129000920606D40A6822F00A020A60012180F848
:1012A0002110DFF810814FF40072016808F1140872
:1012B00013011402414524D9A9420DD0B1420FD0E7
:1012C000B9421AD0614515D0494515D0514501D1D3
:1012D000120312E0594501D102220EE0714501D1FD
:1012E00020220AE0354D1435A94206D0334A28326F
:1012F000914201D11A4600E022462F49091F0A6097
:1013000029E0A94213D0B14215D0B94220D061459D
:101310001BD049451BD0514502D14FF4001217E0B4
:10132000414502D14FF0007212E0594501D102222D
:101330000EE0714501D120220AE0204D1435A9426A
:1013400006D01E4A2832914201D11A4600E02246B8
:10135000134908394A60002180F82010816A002969
:101360001CD0BDE8F05F0847FFE70825A5401542FF
:1013700014D01A0712D50A6822F00E020A6090F8FB
:101380004020C36B012101FA02F25A60816380F8A8
:101390002110002180F82010016BE0E7BDE8F09FEC
:1013A000080002401C00024030000240440002409D
:1013B000580002406C000240080402401C04024035
:1013C00030B560B11A4B026814219A4209D2194B08
:1013D0001344B3FBF1F18900016417490AE00120CD
:1013E00030BD134B5B421344B3FBF1F18900016440
:1013F0000F490839C163022180F82110136843F6B0
:10140000F0718B43F0E901142143D0E902452C43EC
:1014100021430469214344692143846921431943D9
:10142000116000214163012242770177084630BDF7
:1014300008040240F8FFFDBF0000024070B50446FA
:1014400090F82000002501280CD0012084F820000D
:1014500094F821600020012E06D084F82000022597
:10146000284670BD022070BD022684F82160A0636A
:101470002068066826F0010606602046FFF7AEFBEE
:10148000E06A00282068016802D041F00E0106E001
:1014900021F0040101602068016841F00A01016047
:1014A0002068016841F001010160D9E72DE9F84F9A
:1014B000DFF8B8A100220AF1040B144601274FF00F
:1014C0000F090BF1040E00BF0B6807FA04F52B405F
:1014D000AB4274D1DFF898C14E68A6EB0C086645A4
:1014E0002BD00DDC032E34D005DC36B3012E19D001
:1014F000022E2FD11BE0112E16D0122E2AD119E068
:10150000B8F5881F19D006DCB8F5803F15D0B8F5BE
:10151000801F1FD111E0B8F5001F0ED0B8F5041FD1
:1015200018D10AE0CA6815E0CA68121D12E0CA683C
:1015300008320FE0CA680C320CE08A682AB1012A2E
:101540004FF0080203D0456104E0042202E0056187
:1015500000E00022FF2B01D8064601E000F104065E
:101560004FEA840501D9A5F12005D6F800C009FA93
:1015700005F82CEA080C02FA05F54CEA050CC6F849
:1015800000C04D68ED006AD53A4DAE6946F00106DF
:10159000AE61AD6924F0030605F001050095364DF6
:1015A00006EB050CDCF80850A6074FEA167809FA96
:1015B00008F6B543314EB04202D100261AE04EE0A3
:1015C0002F4EB04201D1012614E02E4EB04201D17F
:1015D00002260FE02C4EB04201D103260AE02B4E2A
:1015E000B04201D1042605E0294EB04201D10526C2
:1015F00000E0062606FA08F62E43CCF808604D688F
:10160000DAF80060ED03554601D51E4300E09E4325
:101610002E604D68AD0305D5DBF800601E43CBF8A6
:10162000006004E0DBF800509D43CBF800504D68AB
:10163000DEF80060ED02754601D51E4300E09E43D2
:101640002E604D68AD0205D5084D0C352E681E4341
:101650002E6004E0054E0C3635689D433560641CF1
:10166000102CFFF431AFBDE8F88F000000040140FA
:10167000000011100010024000000140000801406D
:10168000000C01400010014000140140001801400E
:10169000001C0140C2684A40C26070470AB1016143
:1016A00070470904FBE700000148806870470000AC
:1016B0006000002070B504001BD094F83D000025A8
:1016C00020B984F83C50204600F032F9242084F8F8
:1016D0003D002068016821F00101016000F020FB5D
:1016E000404A6168914201D83F4900E03F49884241
:1016F00001D2012070BD3E492368B0FBF1F1596071
:101700006368934206D94FF4967359434FF47A7342
:10171000B1FBF3F12368491C19626168914210D84A
:101720004900401EB0FBF1F2521CC2F30B02042A26
:1017300001D2042022E0B0FBF1F0401CC0F30B000A
:101740001CE0A368CBB301EBC10202EB0116421E01
:10175000B2FBF6F2521C42F48042120536D06BB353
:1017600001EBC10202EB0111401EB0FBF1F0401C85
:10177000C0F30B0040F4804040F400402168C86191
:10178000D4E90701084321680860D4E9031008433D
:1017900021688860D4E9050108432168C860206891
:1017A000016841F0010101602564202084F83D00BA
:1017B000256384F83E50002070BD00E008E001EB96
:1017C0004106421EB2FBF6F2521CC6E70120D5E7E5
:1017D00001EB4101401EB0FBF1F0401CC0F30B00D7
:1017E000CAE70000A086010080841E0000093D00B9
:1017F00040420F002DE9FF4F83B09A46DDE9118783
:1018000093460446DDF84090FFF74EFF064694F8F5
:101810003D0020287DD1192301224349204600960E
:1018200001F0A3F900287CD194F83C00012878D07D
:10183000012084F83C0020680168C90703D10168D1
:1018400041F0010101602068016821F4006101603C
:10185000212084F83D00402084F83E0000252564C6
:10186000C4F82490A4F82A803048E062608D208576
:10187000CDE9007653465A462046049901F0FEF819
:1018800080B3206C84F83C50042848D008E03246ED
:101890003946204601F0DEF930B1206C042839D0F9
:1018A000032007B0BDE8F08F606A411C61622168C7
:1018B00000780861208D401E80B22085618D491E10
:1018C000618521684A69D24352070BD468B1606AC6
:1018D000421C626200780861208D401E2085608D68
:1018E000401E6085208D0028D1D1324639462046E1
:1018F00001F014F90028D0D154F83D0B016841F4EF
:1019000000710160202004F81E09E577657700204A
:10191000C7E706E02068016841F40071016001201A
:10192000BFE70220BDE70000020010000000FFFF3B
:1019300010B586B0002100910191029103910068D9
:10194000104988421BD1104CA06940F00800A061EA
:10195000A069694600F0080004904FF440600090D0
:1019600012200190032003900848FFF79FFDE069D3
:1019700040F48000E061E06900F48000049006B06B
:1019800010BD00000058004000100240000C014053
:10199000024881680278114481607047600000202D
:1019A000074810B5016841F010010160032000F004
:1019B00079F80F2000F006F800F024F8002010BDA0
:1019C0000020024070B50D4D04464FF47A7128781E
:1019D000B1FBF0F00A490968B1FBF0F000F078FBC8
:1019E00048B9102C07D200222146501E00F03AF8C8
:1019F00000206C6070BD012070BD00006000002000
:101A00006C0000200F4808B5816941F00101816137
:101A1000816901F001010091C16941F08051C1610A
:101A2000C069002200F0805000900F21901E00F04D
:101A300019F80548416821F0E06141F0806141609A
:101A400008BD0000001002400000014000F01F022D
:101A5000012191404009800000F1E020C0F8001110
:101A600070470000F0B40E4B1B680C46C3F3022312
:101A7000C3F10705042D00D90425191D072901D23A
:101A8000002300E0DB1E012606FA05F1491E214075
:101A900099409E40761E16403143F0BC01F0E2B9F9
:101AA0000CED00E0064900F0070208684FF6FF035E
:101AB000184040EA0220034A1043086070470000C3
:101AC0000CED00E00000FA052DE9F843054600782A
:101AD000354CC00754D0E0690026C00008D4E06946
:101AE00040F08050E061E069012600F080500090F5
:101AF0002E480168C90512D40168804641F48071FE
:101B00000160FFF7D1FD074605E000BFFFF7CCFD00
:101B1000C01B642823D8D8F80000C005F6D5206A79
:101B200010F4407021D0A98801F4407181421CD08A
:101B3000206A1F49012220F440700A6000220A60D6
:101B40002062C00711D0FFF7AFFD074641F2883889
:101B500008E000BFFFF7A8FDC11B414502D90320E3
:101B6000BDE8F883206A8007F4D5206A696820F40C
:101B70004070084320621EB1E06920F08050E061AF
:101B80002878800705D56068A96820F4404008439C
:101B900060602878C00605D56068696920F4800017
:101BA000084360600020DBE7001002400070004046
:101BB000400442422DE9F047DFF8548105460E46C5
:101BC000D8F8000000F00700B0420CD2D8F800109E
:101BD00021F007013143C8F80010D8F8000000F0E8
:101BE0000700B0426FD128684A4C810712D54007E0
:101BF00003D5606840F4E06060602878000703D592
:101C0000606840F4605060606068A96820F0F0008F
:101C1000084360602878C00744D06868012816D05F
:101C20002168022816D0890700294CDA616821F062
:101C3000030101436160FFF737FD6968074641F220
:101C4000883001290ED00229814618D026E021686B
:101C50008903E9E78901E7E7FFF726FDC11B49454D
:101C600001D918E081466068C0F381000128F3D1F2
:101C700018E000BFFFF718FDC11B49450BD860688D
:101C8000C0F381000228F5D10CE000BFFFF70CFD86
:101C9000C11B494502D90320BDE8F087606810F0F8
:101CA0000C0FF3D1D8F80010404601F00701B14203
:101CB0000BD9016821F0070131430160006800F091
:101CC0000700B04201D00120E6E72878400705D59B
:101CD0006068E96820F4E0600843606028780007E5
:101CE00006D56068296920F4605040EAC100606050
:101CF00000F036F86168084AC1F30311515CC8402E
:101D0000064908600F20FFF75DFE0020C4E70000D1
:101D10000020024000100240884A00086C000020A9
:101D20000448054900684968044AC1F30221515C2E
:101D3000C84070476C00002000100240984A00081C
:101D40000448054900684968044AC1F3C221515C4E
:101D5000C84070476C00002000100240984A0008FC
:101D600012A185B00FC98DE80F0014A0144A0068B5
:101D700004905168134801F00C03042B10D0082B79
:101D80000ED1C1F38343C9031DF803000AD551687E
:101D900004AAC1F34041515C0A4A5043B0FBF1F040
:101DA00005B0704708494843FAE7000002030405FC
:101DB000060708090A0B0C0D0E0F10100102000097
:101DC0000010024000127A0000093D002DE9F84F92
:101DD00004460078B94DC00748D06868C0F3810058
:101DE000012807D06868C0F38100022809D168681B
:101DF000C00306D52868800338D5606800286FD0F6
:101E000034E06068B0F5803F0BD010B1B0F5A02F82
:101E100011D0286820F480302860286820F48020C1
:101E200002E0286840F480302860606888B1FFF7DD
:101E30003BFC064609E0286840F480202860F0E773
:101E4000FFF732FC801B642875D828688003F7D51B
:101E50000CE0FFF729FC064605E000BFFFF724FC75
:101E6000801B6428F0D828688003F7D42078944E2B
:101E700080074FF001094FF000083BD5686810F06B
:101E80000C0F07D06868C0F38100022809D1686888
:101E9000C00306D42868800714D5206901281FD103
:101EA00010E02069B0B1C6F80090FFF7FDFB0746CF
:101EB00005E000BFFFF7F8FBC01B0228C4D8286864
:101EC0008007F7D52868616920F0F80040EAC10072
:101ED00028600FE0C6F80080FFF7E6FB074606E043
:101EE000E9E000BFFFF7E0FBC01B022823D8286809
:101EF0008007F7D4207800072CD57248A169D9B1A2
:101F0000C0F80090FFF7D0FB074604E0FFF7CCFBDA
:101F1000C01B02280FD8686A8007F7D56A484FF4BB
:101F2000FA510068B0FBF1F0009000BF0098411E2C
:101F30000091FAD20EE080E0C0F80080FFF7B4FB19
:101F4000074604E0FFF7B0FBC01B022875D8686A9B
:101F50008007F7D42078400760D5E8690027C000E3
:101F600008D4E86940F08050E861E869012700F092
:101F70008050009055480168C90513D40168834614
:101F800041F480710160FFF78FFB824606E000BFDD
:101F9000FFF78AFBA0EB0A0064284ED8DBF80000AC
:101FA000C005F5D5E06801280AD008B1052813D08E
:101FB000286A20F001002862286A20F0040002E06C
:101FC000286A40F001002862E06841F2883B98B13D
:101FD000FFF76AFB82460BE0286A40F004002862A3
:101FE000EEE700BFFFF760FBA0EB0A0159455AD8A6
:101FF000286A8007F6D50CE0FFF756FB824605E01D
:10200000FFF752FBA0EB0A0159454CD8286A80071C
:10201000F6D41FB1E86920F08050E861E06988B328
:102020006968C1F38101022945D00228C6F86080A1
:1020300004D0FFF739FB044638E034E0FFF734FB07
:10204000074604E0FFF730FBC01B02282BD82868A6
:102050008001F7D4206AB0F5803F05D16868A16897
:1020600020F4003008436860D4E908010843696837
:1020700021F4741108436860C6F86090FFF714FB00
:10208000044606E015E000BFFFF70EFB001B022828
:1020900009D828688001F7D50BE000BFFFF704FBE3
:1020A000001B022802D90320BDE8F88F28688001B0
:1020B000F4D40020F8E70120F6E700000010024009
:1020C00000004242800442426C0000200070004048
:1020D00010B5401EB0F1807F01D3012010BD4FF03C
:1020E000E02460610F21601700F0BCFE0020A061B9
:1020F00007202061002010BD7047704730B590F870
:102100003C20012A20D0012280F83C20022380F8C4
:102110003D3003685C6824F070045C6003685C68B0
:102120000D682C435C6003689C6824F080049C600C
:1021300003689C6849680C439C6080F83D2000213E
:1021400080F83C10084630BD022030BD10B50400B8
:1021500003D094F83D0010B107E0012010BD00202D
:1021600084F83C00204600F00DF8022084F83D0081
:10217000211D206800F042FF012084F83D0000206E
:1021800010BD000008B501681048B1F1804F14D0AF
:102190000F4A914219D1C16941F00401C161C0697E
:1021A000002200F00400009005211E20FFF75AFCD9
:1021B000BDE808401E20FFF749BCC16941F001019C
:1021C000C161C06900F00100009008BD001002402C
:1021D000000800400168CA6842F00102CA60006855
:1021E000016841F0010101600020704770B50446AC
:1021F00090F83C00012817D0012584F83C500220BB
:1022000084F83D002068826822F0770222F47F4241
:1022100082600868502837D00DDC202859D005DCB2
:1022200088B3102841D151E0022070BD302853D02E
:1022300040283AD13FE060282ED070280BD0B0F56E
:10224000805F03D0B0F5005F2FD110E02068816877
:1022500021F0070115E0CB68D1E90121206800F0E9
:102260001EFF2168886840F0770088601DE0CB6819
:10227000D1E90121206800F012FF2068816841F453
:102280008041816011E01EE0CA684968206800F062
:10229000DBFF5021206806E0CA684968206800F02A
:1022A000E4FF6021206800F004FF84F83D50002026
:1022B00084F83C0070BDCA684968206800F0C4FF1B
:1022C00040212068EFE700212068ECE7102120681A
:1022D000E9E720212068E6E730212068E3E770473E
:1022E00070B50446006801694FF00005C9438907CD
:1022F00015D4C168C943890711D4E91E01610120C1
:102300002077206880698007204602D0FFF7E7FF2A
:1023100004E000F0BBF8204600F03DF92577206886
:102320000169C943490717D4C168C943490713D490
:102330006FF004010161022020772068806910F4A9
:10234000407F204602D0FFF7CAFF04E000F09EF86D
:10235000204600F020F9257720680169C943090764
:1023600016D4C168C943090712D46FF0080101618E
:10237000042020772068C0698007204602D0FFF73C
:10238000AEFF04E000F082F8204600F004F9257763
:1023900020680169C943C90617D4C168C943C90681
:1023A00013D46FF010010161082020772068C06904
:1023B00010F4407F204602D0FFF791FF04E000F0C8
:1023C00065F8204600F0E7F8257720680169C943E1
:1023D000C90708D1C168C943C90704D1891E016171
:1023E000204600F0F5F820680169C943090609D4C0
:1023F000C168C943090605D46FF080010161204618
:10240000FFF77AFE20680169C943490609D4C1680B
:10241000C943490605D46FF040010161204600F030
:1024200087F920680169C94389060BD4C168C9438B
:10243000890607D46FF0200101612046BDE8704095
:10244000FFF75BBE70BD000000B585B000210091B4
:102450000191029103910068B0F1804F10D10948B9
:10246000816941F0040181618069694600F00400DE
:10247000049002200090019003900348FFF716F8A3
:1024800005B000BD0010024000080140704770B563
:10249000044690F83C000D4601280DD0012684F832
:1024A0003C60022084F83D0042B1042A18D0082A7A
:1024B0002AD00C2A4DD139E0022070BD206800F0EE
:1024C00001FE2068816941F008018161206881690D
:1024D00021F004018161206881692A69114311E0BA
:1024E000206800F01FFE2068816941F4006181616D
:1024F0002068816921F480618161206881692A698D
:1025000041EA0221816124E0206800F041FE206858
:10251000C16941F00801C1612068C16921F004016D
:10252000C1612068C1692A69114311E0206800F087
:1025300063FE2068C16941F40061C1612068C1691E
:1025400021F48061C1612068C1692A6941EA0221E0
:10255000C16184F83D60002084F83C0070BD10B576
:10256000040003D094F83D0010B107E0012010BD35
:10257000002084F83C00204600F00CF8022084F88B
:102580003D00211D206800F039FD012084F83D0048
:10259000002010BD7047704710B504460068012246
:1025A00000F072FD08492068884202D0074988423D
:1025B00003D1416C41F4004141642068016841F05D
:1025C00001010160002010BD002C014000340140D9
:1025D0002DE9F04100684F49884262D102214E48FE
:1025E000FFF758F802224D494D48FEF769FC0220DA
:1025F000401C0F28FCDB4A48FEF7E8FC5FF00200B5
:10260000464CDFF8208101270025241D401C4FF097
:1026100066360F28F4DB201F0088FEF768F8324684
:10262000414BFDF752FF6FF00B02FEF72FF8FEF75C
:102630007EF82060FEF768F832464346FDF73FFF1C
:10264000FEF775F8A062A168FEF78EF801D2276345
:102650000AE02068FEF758F832464346FDF732FF9D
:10266000FEF765F82563A062266B3046FEF725F875
:10267000E061E06AB04201D0012E14D0606B401CD2
:102680006063A76A206A3946FDF7EEFD394620628D
:102690000846FDF741FE616AFDF7E6FDE662A561C9
:1026A0006062BDE8F081A761666B97FBF6F0FEF70C
:1026B00004F8A0633046FEF709F801F0D7FE0246A1
:1026C0000B4600201949FDF772FFFEF730F8E06372
:1026D0000646A16B206AFDF71FFE20613046FEF71B
:1026E00013F807460E46606AFEF70EF801F0BEFECC
:1026F0003A463346FDF7E9FEFEF719F8E060A16BB4
:102700006068FDF709FE6061206B256265626563A4
:10271000E062C6E700080040001001401C000020F5
:10272000D80400206666FA3F66660A400000F03F63
:102730007047704770B5026804461068D1685369E5
:1027400010F00F0F50D003F0010501F490763543DF
:102750005DD0C20705D0CA0503D5E26B42F0010285
:10276000E263420705D5DA0703D0E26B42F00202CA
:10277000E263820705D5DA0703D0E26B42F0040278
:10278000E263020705D5DA0703D0E26B42F00802E4
:10279000E263E26B002A33D0800604D5880602D5B6
:1027A000204600F091FD20684069E16BC0F3801085
:1027B000090700D428B3204600F078FD206841695D
:1027C00049061AD5416921F040014161606BA0B111
:1027D0001B494163606BFEF737FC002810D0606B2B
:1027E000416BBDE870400847830610D58B060ED5B7
:1027F0002046BDE8704000F067BD2046FFF799FF16
:1028000070BD2046FFF795FF0020E06370BD030612
:1028100006D50B0604D52046BDE8704000F058BE32
:102820004006F3D54806F1D5D168204621F0400195
:10283000D160202184F8391000F00AF970BD000041
:102840009D32000870B5040004D094F839000025CA
:1028500010B106E0012070BD84F83850204600F029
:1028600023F8242084F839002068C16821F400513D
:10287000C160204600F074FD2068016921F4904198
:1028800001612068416921F02A0141612068C16825
:1028900041F40051C160E563202084F8390084F8D8
:1028A0003A00002070BD000070B586B0002400948E
:1028B000019402940394314E0368314802210322AB
:1028C0000425B3422DD1C36943F48013C361C369A6
:1028D00003F480130493836943F0100383618369D5
:1028E00003F010030493836943F02003836180693C
:1028F000039200F020000490C802CDE9000169466F
:102900002048FEF7D3FDCDE9005469461E480294E5
:10291000FEF7CCFD002205213520FFF7A3F8352076
:1029200028E01A4EB34227D1C36943F40033C36190
:10293000C36903F400330493836943F004038361A0
:102940008069CDE9005100F00400CDE90320104D6D
:1029500069462846FEF7AAFD0820CDE9000469462D
:1029600028460294FEF7A2FD002205212620FFF74B
:1029700079F82620FFF76AF806B070BD00500040D5
:1029800000100240001001400014014000440040CB
:102990000008014070472DE9F843044690F83900DB
:1029A0001F4616460D46202850D1A5B19EB194F879
:1029B000380001284AD0012084F838004FF0000880
:1029C000C4F83C80212084F83900FEF76DFEA6840F
:1029D0008146E68426E00120BDE8F883E08C401EB5
:1029E000E084A0684B46B0F5805F4FF000024FF0E6
:1029F00080012046009703D000F09BFDE8B90DE070
:102A000000F097FDC8B928882168C0F30800486025
:102A1000206908B16D1C05E0AD1C03E0216815F8C4
:102A2000010B4860E08C0028D8D14B4600224021A1
:102A30002046009700F07DFD08B10320CCE7202060
:102A400084F8390084F838800020C5E70220C3E705
:102A50007047FEE701684A69D24352050CD46FF40F
:102A600080624A6104210164002140F8301F202265
:102A70004273017301207047002070472DE9F8432D
:102A8000044600680D46DDE9089701689846164639
:102A900041F4807101604B4600224FF00111204645
:102AA000009700F062F8E8B9216805F0FE000861BF
:102AB0003B464A461849204600F088F828B1206C69
:102AC00004280FD10120BDE8F8832068416980699E
:102AD00000903A464946204600F0BCF820B1206CF0
:102AE000042813D00320EEE7F5B2B8F1010F09D0A6
:102AF0002168300A08613A464946204600F0AAF8A3
:102B00000028ECD1206805610020DCE7206801681E
:102B100041F400710160D5E70200010070B516466E
:102B20000D4604461AE02046FFF794FF08B1012045
:102B300070BD681C12D025B1FEF7B6FD801BA842FF
:102B40000CD954F8400F40F0200044F81009002040
:102B50002060202161732073032070BD20684069CC
:102B6000C0434007DFD4002070BD2DE9F0471E466A
:102B700090460D460446C1F30747DDF8209012E069
:102B8000701C10D02EB1FEF78FFDA0EB0900B042F3
:102B900009D9002044F8300F20216173A0732073FD
:102BA0000320BDE8F0872068012F0AD0806925EA5C
:102BB00000000004000C06D000214145E0D00020B8
:102BC000EFE74069F3E70121F7E700002DE9F0475F
:102BD0009A4691460D46044600264FF02008C1F360
:102BE00007472AE020684069C043400512D42068A6
:102BF000016841F40071016021686FF480604861F0
:102C000004202064266384F83D8084F83C60012021
:102C1000BDE8F087B9F1FF3F0FD0B9F1000F05D043
:102C2000FEF742FDA0EB0A01494506D944F8306F92
:102C300084F80D8026730320EAE72068012F07D06F
:102C4000D0F8180025EA00000004000CE0D0C9E725
:102C50004069F7E770B516460D4604461AE020466F
:102C6000FFF7F8FE08B1012070BD681C12D025B135
:102C7000FEF71AFD801BA8420CD954F8400F40F013
:102C8000200044F810090020206020216173207387
:102C9000032070BD20684069C0430006DFD40020D7
:102CA00070BD00003EB50024124800940194104904
:102CB000029401608915C0E902144461022505618E
:102CC0004FF460214460C161FEF722F804200090B7
:102CD0000120CDE9010469460648FDF797FF05206C
:102CE000CDE9000569460348FDF790FF3EBD0000B1
:102CF00000240140D80400202DE9F04186B00024D2
:102D000023480094019402940394816941F01001D6
:102D10008161816901F010010491816941F0040130
:102D20008161816901F004010491816941F0080128
:102D30008161816901F008010491816941F02001FC
:102D400081618069134F00F0200004900022072168
:102D50003846FEF7A3FCDFF8408000220121404600
:102D6000FEF79CFC072001250226CDE90005CDE9F0
:102D7000024669463846FEF799FB03960095CDE971
:102D8000015469464046FEF791FB06B0BDE8F0816C
:102D900000100240001001400008014010B58EB044
:102DA00000240794089409940A940B941C21684603
:102DB0000C94FDF74EFA15484FF080410160182140
:102DC000C0E90114C46004618461FFF7BFF94FF4E6
:102DD0008050079007A90D48FFF708FA0B48FFF746
:102DE000BEFB0B940BA909480C94FFF787F96020F0
:102DF000CDE9000402940422694604480494FFF7D4
:102E000046FB0248FFF720FB0EB010BD5C0500201A
:102E100010B586B0002411480094019402940394E4
:102E200004940D49059401603021C0E90114642126
:102E3000C0E903148461FFF789F94FF480500090D2
:102E400069460648FFF7D2F9049404A9034805949B
:102E5000FFF754F906B010BD000800409C050020A3
:102E6000FEE770470907090E002806DA00F00F0098
:102E700000F1E02080F8141D704700F1E02080F898
:102E8000001470470020114C4FF47A76A4F1180515
:102E900020600F4860600F48A060E06828606169AA
:102EA0006960FDF731FC02460B460BA000F07CFB8D
:102EB0006868FDF729FC676B02460B4639460AA095
:102EC00000F072FB304601F087F8E6E720000020B2
:102ED00000409C460AD7A33C56726D7320203D20CB
:102EE000252E32660D0A000073616D706C65203D01
:102EF0002025642C20467265713D252E32660D0A10
:102F0000000000000A4C0B4E40F2DC55A06831680E
:102F100088631421002001F0CFFA2821002001F05D
:102F2000CBFA01F0CFFA284601F056F8EEE70000A0
:102F3000080000205C05002010B5FEF729FDBDE863
:102F4000104001F055B830B595B028216846FDF71E
:102F500080F914210AA8FDF77CF918210FA8FDF7C4
:102F600078F9022401200490009410200590002597
:102F70004FF42010CDE9085007946846FEF726FF6D
:102F80000AA90F2081E831006002CDE90D05012179
:102F90000AA8FEF70FFE4FF4404011900F940FA8BF
:102FA000FEF792FD15B030BD0D48016841F00101FA
:102FB000016041680B4A1140416001680A4A1140B2
:102FC0000160016821F480210160416821F4FE0163
:102FD00041604FF41F0181600449C00308607047DD
:102FE000001002400000FFF8FFFFF6FE08ED00E0D1
:102FF0000148FFF775B900009C050020F0B5026894
:103000001C4B1D4D1D4E1E4F1E4C4FF0804C9842C8
:1030100009D0A04207D0604505D0A84203D0B042F5
:1030200001D0B84204D122F0700E4A6842EA0E0282
:10303000984209D0A04207D0604505D0A84203D0ED
:10304000B04201D0B84203D122F44075CA682A4385
:1030500022F080054A692A4302608A68C2620A68CF
:103060008262984201D0A04201D109690163012125
:103070004161F0BD002C0140000400400008004008
:10308000000C00400034014010B50123046A8B405D
:103090009C430462036A8A401343036210BD10B567
:1030A000846842EA032224F47F440A432243826074
:1030B00010BD826822F070020A4342F0070181606D
:1030C00070470000F0B5026A22F001020262036A52
:1030D00042688469124E24F073050C682C4323F077
:1030E00002058B682B430D4DA84201D0B04205D19B
:1030F00023F00807CB683B4323F00403A84201D028
:10310000B04205D14D6922F4407215438A692A43C1
:1031100042608461496841630362F0BD002C014054
:1031200000340140F0B5026A22F010020262026A25
:10313000436884690D6824F4E64444EA05248D68F4
:1031400022F0200242EA05120F4D104EA84201D093
:10315000B04206D1CF6822F0800242EA071222F084
:103160004002A84201D0B04207D14D6923F4406328
:1031700043EA85038D6943EA8503436084614968B6
:1031800081630262F0BD0000002C01400034014068
:10319000F0B5026A22F480720262026A4368C4696E
:1031A00022F4007224F073050C68124E2C438D68D3
:1031B00042EA05220E4DA84201D0B04206D1CF68A6
:1031C00022F4006242EA072222F48062A84201D07F
:1031D000B04207D14D6923F4405343EA05138D698A
:1031E00043EA05134360C4614968C1630262F0BDEC
:1031F000002C01400034014030B5026A22F48052B4
:103200000262046A4268C3690D6823F4E64343EA34
:1032100005238D6824F4005444EA0534084DA8427F
:1032200002D0084DA84204D14D6922F4804242EAFE
:1032300085124260C36149680164046230BD0000C8
:10324000002C01400034014010B5036A046A24F0E8
:1032500001040462846924F0F00444EA021423F0B7
:103260000A020A438461026210BD10B5036A23F0AA
:10327000100303628369046A23F4704343EA023251
:1032800024F0A00343EA01118261016210BD000035
:103290000148FFF74FBA0000DC05002010B5406A76
:1032A0000021C185C184FFF744FA10BD0168CA68D6
:1032B00022F49072CA6001684A6922F001024A61F0
:1032C000202180F83A10704710B590F83A10222962
:1032D00001D0022010BD8168B1F5805F11D0016975
:1032E000002901681FD0496801F07F03816A4A1CE8
:1032F00082620B70C18D491E0904090CC18518D06A
:103300002BE00269816A002A0268526805D0D2B2B5
:103310000A80816A491C8162ECE7C2F308020A80D4
:10332000816A891CF7E74A68816A4B1C83620A70CC
:10333000E0E70168CA6822F02002CA600168CA6832
:1033400022F48072CA6001684A6922F001024A616F
:10335000202180F83A10FFF71DFB002010BD00006F
:103360002DE9F041044600680169E26821F440510A
:10337000114301612169A06808436169084321681C
:10338000CA6841F20C639A430243CA6020684169EB
:10339000A26921F44071114341614C4920686425C0
:1033A000322688423CD1FEF7CBFC00EBC00101EB9A
:1033B000001061688900B0FBF1F7FEF7C1FC00EB7B
:1033C000C00101EB00106168B0468900B0FBF1F06C
:1033D000B0FBF5F06FF01801484307EB800106EBF6
:1033E0000110B0FBF5F000F0F006FEF7A9FC00EBD1
:1033F000C00101EB001061688900B0FBF1F0B0FB87
:10340000F5F006EB0016FEF79BFC00EBC00101EBAC
:10341000001061688900B0FBF1F7FEF791FC3BE01A
:10342000FEF77EFC00EBC00101EB00106168890033
:10343000B0FBF1F7FEF774FC00EBC00101EB0010EC
:103440006168B0468900B0FBF1F0B0FBF5F06FF0B9
:103450001801484307EB800106EB0110B0FBF5F0C3
:1034600000F0F006FEF75CFC00EBC00101EB001081
:1034700061688900B0FBF1F0B0FBF5F006EB0016D7
:10348000FEF74EFC00EBC00101EB00106168890003
:10349000B0FBF1F7FEF744FC00EBC00101EB0010BC
:1034A00061688900B0FBF1F0B0FBF5F06FF0180136
:1034B000484307EB800108EB0110B0FBF5F02168F1
:1034C00000F00F0030448860BDE8F0810038014012
:1034D00090F83910212901D0022070478168B1F598
:1034E000805F016A0BD04A1C026202680978516051
:1034F000C18C491E0904090CC1840ED017E009884B
:103500000268C1F30801516001690029016A02D013
:10351000491C0162ECE7891CFBE70168CA6822F0DC
:103520008002CA600068C16841F04001C1600020AB
:1035300070472DE9F041984617460E460446069D11
:103540001DE0681C1BD02DB1FEF7AEF8A0EB080003
:10355000A84214D92068C16821F4D071C1602068E4
:10356000416921F001014161202084F8390084F88B
:103570003A00002084F838000320BDE8F08120687C
:10358000006836EA000004D00020B842D9D00020FC
:10359000F3E70120F9E700000148FFF7CBB800008E
:1035A0001C060020FEE700000FB4054B10B503A970
:1035B000044A029800F0E0F810BC5DF814FB00002B
:1035C000A93E0008D000002002E008C8121F08C170
:1035D000002AFAD170477047002001E001C1121F94
:1035E000002AFBD1704700000149086070470000C5
:1035F000D40000202DE9FF5F82B00021DDE9043016
:10360000020DDDF840B0034318D044F61050A2F28A
:10361000FF3242431514119801281FD0A5EB0B006F
:10362000401C5FEA000A4FF000064E4FDFF8389169
:10363000B046504615D5CAF1000413E01198012494
:103640004AA3012801D16FEA0B010298119AC0E93F
:103650000031C0E9024206B0BDE8F09FCBF10000A6
:10366000DFE704460021404A491842EB0450CDE907
:10367000001012E0E00707D032463B46404649467C
:10368000FCF723FF8046894632463B4610461946E2
:10369000FCF71BFF06460F466410002CEAD1DDE95B
:1036A0000401DDE90023BAF1000F06DAFCF70DFF93
:1036B00042464B46FCF709FF05E0FCF778FF42461F
:1036C0004B46FCF774FF04460E460022284BFDF7DC
:1036D000BBF903D84FF0FF30014607E00022254B2D
:1036E00020463146FCF74AFEFDF795F9102409E023
:1036F000002C0ADB0A220023FDF756F8039B303228
:103700001A55641E50EA0102F2D1641C039AC4F1F6
:1037100011031444119A012A03D0012208430DD148
:103720000AE0084304D000204FF0110B119072E71B
:10373000A3EB0B056D1E0DE05B4504DD4FF00002B1
:1037400005F1010504E003DA4FF00002A5F10105DF
:10375000002AECD002981199C0E90231C0E9004575
:1037600079E70000000014400000F03F3000000046
:103770000000F0430000E03F2DE9FF4F95B09B466D
:103780008946064600250FE2252877D100242746E2
:10379000F84A0121059400E0044316F8013F203B5C
:1037A00001FA03F01042F7D130782A2811D06FF0D7
:1037B0002F033078A0F13002092A16D8059A44F078
:1037C000020402EB820203EB42021044761C0590D5
:1037D000EFE759F8042B0592002A03DA504244F42B
:1037E0000054059044F00204761C30782E2816D13F
:1037F00016F8010F44F004042A280DD06FF02F02B0
:103800003078A0F13003092B09D807EB870302EBCE
:103810004303C718761CF3E759F8047B761C30780D
:103820006C280FD006DC4C2817D068280DD06A28E9
:1038300014D104E0742810D07A280FD10DE044F49C
:1038400000140AE044F4801401E044F44014727857
:10385000824202D104F58014761C761C30786628EA
:103860000BD013DC582877D009DC002875D0452808
:10387000F6D04628F4D047281AD19DE118E06328F5
:1038800035D0642879D0652812D195E1702873D09D
:1038900008DC6728F1D069286FD06E280DD06F281A
:1038A00006D1B5E073282CD0752875D0782874D04F
:1038B0005A46179990476D1C75E1C4F302500228CF
:1038C00009D003280DD0D9F8001004280DD00D60C0
:1038D00009F1040967E1D9F80010EA17C1E90052BB
:1038E000F6E7D9F800100D80F2E70D70F0E719F84F
:1038F000041B8DF8001000208DF80100EA4601201D
:1039000003E059F804AB4FF0FF3061074FF00001BE
:1039100002D40DE008F101018846B9420FDA804572
:10392000F8DB1AF808100029F4D108E008F10101C9
:1039300088468142FADB1AF808100029F6D105986A
:103940005B46A0EB080721463846179A00F094FA28
:10395000284400EB080507E04DE029E10DE01AF8E6
:10396000010B5A4617999047B8F10108F7D25B4608
:1039700021463846179A13E142E00A220092C4F326
:1039800002524FF0000A022A08D059F804CB032A49
:103990004FEAEC710AD00DE029E02AE009F10701B5
:1039A00021F00702F2E802C1914609E00FFA8CFC0F
:1039B0004FEAEC71042A03D14FFA8CFC4FEAEC7108
:1039C000002907DA0A460021DCF1000C61EB020154
:1039D0002D2202E0220504D52B228DF8042001229D
:1039E00003E0E20701D02022F7E7904659E00A21E0
:1039F00002E010220DE010214FF0000A00910BE0D0
:103A000010224FF0000A44F004040827009203E05B
:103A100008224FF0000A0092C4F30252022A05D095
:103A200059F804CB0021032A08D009E009F1070165
:103A300021F00702F2E802C1914605E01FFA8CFC72
:103A4000042A01D10CF0FF0C4FF00008220728D502
:103A5000702806D0009B83F0100353EA0A0305D0B8
:103A60000EE040228DF80420012208E05CEA010209
:103A700006D030228DF804208DF8050002229046F1
:103A8000009B83F0080353EA0A030AD15CEA0102AF
:103A900001D1620705D530228DF804204FF00108CE
:103AA0007F1E582804D034A003900EA802900DE089
:103AB00036A0F9E753466046009AFCF775FE844647
:103AC0000398825C0298401E029002705CEA01003A
:103AD000F0D1029806A9081A00F1200A600702D561
:103AE00024F4803400E00127574502DDA7EB0A00EB
:103AF00000E0002000EB0A01009005984144401AC4
:103B00000590E00306D45B462146179A059800F01D
:103B1000B3F90544002706E001A85A46C05D17998D
:103B200090476D1C7F1C4745F6DBE0030CD55B46D8
:103B30002146179A059800F09FF9054404E03020CB
:103B40005A46179990476D1C0099481E009000290D
:103B5000F5DC08E0029802995A460078491C029167
:103B6000179990476D1CBAF10001AAF1010AF1DC26
:103B700065E1000009280100303132333435363731
:103B800038396162636465660000000030313233A9
:103B90003435363738394142434445460000000049
:103BA00000F058F90544761C307800287FF4ECAD1D
:103BB00019B02846BDE8F08F620700D4062709F146
:103BC000070222F0070CFCE80223E14603F000485C
:103BD0005FEA080C02D00FF2702C0DE05FEA045C83
:103BE00002D50FF2682C07E05FEAC47C02D00FF226
:103BF000602C01E0AFF2700C4FF0FF3823F000436F
:103C0000CDF850C065280CD006DC452809D04628E0
:103C10001DD047283DD13DE0662818D067287ED1C9
:103C200038E00021112F01DB112000E0781CCDE9E4
:103C3000000106A90EA8FFF7DDFCDDE90F010E9AD1
:103C400003910021009207F1010A04914DE04FF029
:103C500000400097CDE9011006A90EA8FFF7CAFCA5
:103C6000DDE90F0203920E9B11990022DDF80CA0F2
:103C70000093049211B9791C00EB010AB7EB0A001A
:103C800004D4C0F1FF3007F1010A0490AAEB070049
:103C9000019044E0012F00DA01270021112F01DDFE
:103CA000112000E03846CDE9000106A90EA8FFF773
:103CB000A1FCDDE90F010E9A03910021049100920D
:103CC000BA4621070CD40399514500DA8A46BAF165
:103CD000010F05DD009AAAF10101515C302908D0DD
:103CE000B84202DA10F1040F06DA0121CDE9011021
:103CF00015E0AAF10101E9E7002805DC0499014477
:103D00000491AAEB000102E0411C514500DD8A4606
:103D10000499401A401C01904FF000400290200787
:103D200004D40198504501DBCDF8048000208DF8C3
:103D30004F0002980DF14F07B0F1004F25D02B2016
:103D40000E9002984FF0020800280CDA40420290D0
:103D50002D200E9007E00A210298FCF70FFD30316C
:103D6000029007F8011DB8F10001A8F10108F2DC8A
:103D700002980028EFD1791E0E980870307800F074
:103D8000200040F0450007F8020D12A8C01B00F10A
:103D900007081498007800B1012000EB0A0101988F
:103DA00001EBE07105984144401A401E0590E00384
:103DB00006D45B462146179A059800F05DF8054445
:103DC0001498007818B15A46179990476D1CE00373
:103DD00024D55B462146179A059800F04DF8054416
:103DE0001CE00498002807DBDDE90301884203DDBD
:103DF0000098405C179901E0179930205A46904787
:103E0000049805F10105401C04900198401E0190A2
:103E100004D12E205A46179990476D1CBAF1000123
:103E2000AAF1010ADDDC05E017F8010B5A461799E3
:103E300090476D1CB8F10001A8F10108F4DC5B4665
:103E40002146179A0598ABE62D0000002B000000D4
:103E5000200000002DE9F041044600251E461746CB
:103E6000880404D405E039462020B0476D1C641E48
:103E7000F9D52846BDE8F0812DE9F041044600253A
:103E80001E469046C80301D5302700E0202788044D
:103E900004D505E041463846B0476D1C641EF9D58F
:103EA0002846BDE8F081000013B56423012269466D
:103EB0000248FEF770FD00981CBD00001C060020A3
:103EC0008CB0FDF76DFDFFF73EF8FEF715FF3648A5
:103ED000416941F0010141614069002200F00100A7
:103EE0000A9005210B20FDF7BDFD0B20FDF7AEFD6F
:103EF000FEF7D8FE2E482D494FF4E135002401602D
:103F0000C0E901540C26C460C0E904468461C46160
:103F1000FEF798FCFEF742FF25482649D438016099
:103F20002549C0E901144FF48041C0E903414461CF
:103F30008461C4610462FDF7BDFB1D481F49403028
:103F40000160C0E90154C460C0E904468461C461F1
:103F5000FEF778FCFEF75CFF154804218038FEF779
:103F60001BFB13484038FEF735F914221449684604
:103F7000FCF756F90021684600F044F8114C10494E
:103F80001422E060143105A8FCF74AF9002105A8C5
:103F900000F038F80122206111460B48FDF77EFB46
:103FA00000F021F8FEE70000001002400050004041
:103FB000DC05002000580040A086010000440040BD
:103FC000604A00080800002000100140014600205F
:103FD000842900D0C81C704710B500B9012000F03A
:103FE0005FFB002010BD10B500F080FB002010BD6D
:103FF00010B500F061FC012803D0BDE8104000F0CE
:1040000019BC10BD3EB504460D46B0F90800FFF7D7
:10401000DDFF02A9CDE90001208A2B4682B2D4E956
:10402000001000F01DFC012801D000203EBD0298C8
:104030003EBD00002DE9F041184C0F460546E668EC
:104040002068001D00F076FA38B9206890F82C102E
:1040500001208840216981432161681C07D137B163
:104060002168BDE8F0410E48091D00F09BBA2068A8
:104070003544B5424560216805D2A06BBDE8F041EA
:10408000091D00F077BA606B091D00F073FAA06A91
:10409000854200D2A562BDE8F081000070000020DA
:1040A0007C0700202DE9F041054600F087FA2E4CF0
:1040B000A068401CA06020682C4F10B1606940B31C
:1040C0002DE02560A068012829D1002606EB860096
:1040D00007EB800000F040FA761C072EF6D3234849
:1040E0008C3000F039FA2148A03000F035FA1F4832
:1040F000B43000F031FA1D48C83000F02DFA1B48EA
:10410000DC3000F029FA19488C3060631430A06369
:1041100005E02068E96AC06A884200D82560606AC4
:10412000401C6062E96A01202269884010432061D6
:1041300001EB810007EB8000291D00F033FA00F04D
:104140005DFA606900280CD02068E96AC06A88427C
:1041500007D207494FF080500860BFF34F8FBFF37D
:104160006F8FBDE8F081000070000020A0060020E5
:1041700004ED00E070B5114E114C17E000F0EAFAC2
:104180003068B8B100F00AFC00F018FAF068C568B1
:10419000281D00F0CFF9A068401EA0606068401E96
:1041A000606000F02BFA284600F00CF860680028E8
:1041B000E4D170BD00F0F2FBF8E7000068070020D2
:1041C0007000002010B50446006B00F02BFA20466A
:1041D000BDE8104000F026BA10484FF44061420795
:1041E00006D0C01D0D4920F00700411AC1F54061FD
:1041F0000B4A00230144C2E900030839103A21F0B8
:10420000070111604B600B600B1AC0E9001393604B
:104210004FF000405360D0607047000090070020CE
:10422000BC000020074C4FF08056074DFFF7A2FF5F
:1042300020680128FAD92E60BFF34F8FBFF36F8F2C
:10424000F4E70000A006002004ED00E02DE9F047AF
:104250009A46DDE9098481466FF00303206B03EB86
:1042600082021044089D20F00706700707D05020F6
:1042700080F31188BFF34F8FBFF36F8FFEE72318D2
:104280000A5C83F834200A5C12B1401C1028F6D373
:10429000002784F84370072D00D30625E562C4E9A2
:1042A0001157201D00F063F904F1180000F05FF9C8
:1042B0002461C5F107006462A061E76484F850706E
:1042C00052464946304600F0BFF82060B8F1000F72
:1042D00001D0C8F80040BDE8F087000030B51149B2
:1042E00000E011460A688242FBD34B685C188442A6
:1042F00003D1406818444860084643681C1894423B
:1043000009D1084C103C2468A24209D052681A44D2
:1043100042600A6812680260814200D0086030BDC5
:104320000460F9E7BC0000200648416B096829B128
:10433000416BC968C9684968816270474FF0FF31B5
:10434000FAE700007000002008484068401C4FF069
:10435000500080F3118804D0BFF34F8FBFF36F8FED
:10436000FEE7BFF34F8FBFF36F8FFEE7C40000205F
:104370002DE9F0410546002700F0ECF9314E306898
:1043800008B9FFF729FFF06805424BD1C5B30835DE
:1043900068070ED005F00700C0F108000544680763
:1043A00007D0502080F31188BFF34F8FBFF36F8F7A
:1043B000FEE72DB37068854234D82248103001469C
:1043C0000C6801E020460C466168A94202D22168CF
:1043D0000029F7D131688C4224D007682168016038
:1043E00060680837411B10290FD96019420708D0AF
:1043F000502080F31188BFF34F8FBFF36F8FFEE71C
:1044000010E041606560FFF769FF61687068401AFD
:104410007060B268904200D2B060F0680143002042
:10442000C4E9000100F0BAFA780707D0502080F301
:104430001188BFF34F8FBFF36F8FFEE73846BDE89B
:10444000F0810000AC00002010B5031F4FF0807415
:104450001C601B1F21F001011960191F024B0B602A
:10446000143940380A6010BD494300082DE9F04175
:1044700006460F46FCF77EFA041E0D4618BF0120C3
:10448000284320F00040C0F17F6000F1E040C00F01
:104490000ED0301C18BF0120384320F00040C0F17E
:1044A0007F6000F1E040C00F04BF0120FFF79CF8DF
:1044B00020462946BDE8F081014A108051807047AE
:1044C00000000020FEB5002464250F4F802600BFA9
:1044D00004F1B000C0B200F01BF8002000F018F8A2
:1044E000102000F015F807EBC410CDE900060123F9
:1044F0004022782102950548FDF77CF9641CE4B25E
:10450000082CE5D3FEBD0000D800002008050020DF
:1045100001B584B001210A2204A88DE807000B46EA
:10452000002278210248FDF765F905B000BD0000C2
:1045300008050020D0E9013201699A60D0E9012321
:104540005A604A68824201D182684A600022026150
:104550000868401E0860704700F108014FF0FF3204
:10456000C0E90112C16001610021016070470021B2
:104570000161704730B50B685A1C02D000F1080287
:1045800002E0026904E02246546825689D42FAD997
:1045900053684B6099608A60516008610168491CEA
:1045A000016030BD42684A6093688B6093685960CF
:1045B000916008610168491C01607047502080F3D8
:1045C0001188BFF34F8FBFF36F8F0A494868401CB3
:1045D000486001280CD10848006810F0FF0F07D090
:1045E000502080F31188BFF34F8FBFF36F8FFEE72A
:1045F00070470000C400002004ED00E0084948684E
:1046000028B1401E486001D180F3118870475020C6
:1046100080F31188BFF34F8FBFF36F8FFEE7000069
:10462000C400002070B5002827D0144DA0F1080464
:104630006168E868014207D1502080F31188BFF318
:104640004F8FBFF36F8FFEE722683AB1502080F39F
:104650001188BFF34F8FBFF36F8FFEE78143616017
:1046600000F078F860686968084468602046FFF7E1
:1046700035FEBDE8704000F091B970BDAC0000207F
:1046800006484FF47A710068B0FBF1F14FF0E0207A
:10469000491E416107210161704700006C00002044
:1046A00010B5020014D00F48006B38B1502080F3D1
:1046B0001188BFF34F8FBFF36F8FFEE700F04AF80A
:1046C00000211046FFF7B6FC00F068F9002807D17A
:1046D00005494FF080500860BFF34F8FBFF36F8FD5
:1046E00010BD00007000002004ED00E01CB515486E
:1046F0000024CDE900402346802213A1144800F095
:10470000AFF8012809D0401C1AD1502080F311883D
:10471000BFF34F8FBFF36F8FFEE7502080F31188F8
:10472000BFF34F8FBFF36F8F06484FF0FF312C3828
:10473000816201214161C460BDE81C4000F040B8C5
:104740001CBD00009C00002049444C4500000000B6
:10475000254200080248016B491C016370470000B4
:10476000700000201448016B11B10121C161704734
:104770000021C1610169B1FA81F1C1F11F0101EBB1
:1047800081020E4951F822306BB101EB820101F137
:1047900008034A6852684A609A4201D152684A60E6
:1047A000D16801607047502080F31188BFF34F8FAC
:1047B000BFF36F8FFEE7000070000020A00600200E
:1047C0001CB5194908780190FF20087008788DF809
:1047D00000009DF80000154A00F0500010700720FE
:1047E000906005E09DF800305B008DF80030401EC1
:1047F0009DF800301B06F5D4000200F4E0609060E4
:10480000019808700A48016841F47001016001686C
:1048100041F070410160FFF733FF00205060FBF76B
:10482000A3FC00201CBD000000E400E0C400002048
:1048300020ED00E010B5502080F31188BFF34F8FBA
:10484000BFF36F8F00F046F818B104494FF0805065
:104850000860002080F3118810BD000004ED00E026
:104860002DE9FF5F8346DDE90E87994616468A46A5
:104870009000FFF77DFD05001AD05420FFF778FD6A
:10488000040012D025630021CDE90241CDE9008763
:104890004B46324651465846FFF7D8FC2046FFF7B4
:1048A00001FC012004B0BDE8F09F2846FFF7BAFEE6
:1048B0004FF0FF30F6E700000548416919B1006B81
:1048C00018B1002070470120704702207047000097
:1048D000700000202DE9F0412E4C0027206B40B1E4
:1048E000A069401CA061E06900B101273846BDE81D
:1048F000F081E668761CE66013D1606B006838B121
:10490000502080F31188BFF34F8FBFF36F8FFEE706
:10491000606BA16B6163A063206A401C2062FFF79B
:1049200003FDA06ADFF87080864209D3606B0068DF
:1049300080B1606BC068C568686886420DD2A062AD
:104940002068C06A00EB800158F821000128CAD90C
:104950000127C8E74FF0FF30F1E7281DFFF7EAFD18
:10496000A86A18B105F11800FFF7E4FDE86A012113
:10497000226981401143216100EB800108EB810035
:10498000291DFFF70FFEE86A2168C96A8842CDD366
:104990000127CBE770000020A00600202DE9F0479A
:1049A0002C4D00242746286B38B1FFF707FE286BF3
:1049B000401E2863286B40B146E0502080F31188E8
:1049C000BFF34F8FBFF36F8FFEE7A968224E012020
:1049D000D1B3A6F1B40980463068E8B1F068C46884
:1049E00004F11800FFF7A6FD201DFFF7A3FDE06A04
:1049F0002A6908FA00F11143296100EB800109EBF3
:104A00008100211DFFF7CEFDE06A2968C96A88424E
:104A1000E2D3C5F81C80DFE70CB1FFF785FCAC6979
:104A200044B14646FFF756FF00B1EE61641EF9D16E
:104A30000020A861E86938B10849012738070860F3
:104A4000BFF34F8FBFF36F8FFFF7D8FD3846BDE838
:104A5000F0870000700000205407002004ED00E003
:104A6000AC4A0008852E000800000000000000008D
:104A700080000000A04A0008052F0008FDFF00008C
:104A800000000000800000000000000000000000A6
:104A900001020304060708090000000001020304E4
:104AA0006D795461736B303200000000646566619B
:104AB000756C745461736B00D84A000800000020C4
:104AC000D8000000C8350008B04B0008D80000200E
:104AD000B8160000D83500080000000000000000F3
:104AE0000000000000000000640000000000000062
:104AF00000000000000000000000000000000000B6
:104B00003333D33F0000000000000000000000002D
:104B10000000000000000000000000000000000095
:104B20000000000001000000010000000000000083
:104B30000000000000000000010000001000000064
:104B40000000000000A24A04000000000000000075
:104B50000000000000000000000000000000000055
:104B60000000000000000000000000000000000045
:104B70000000000000000000000000000000000035
:104B80000000000000000000000000000000000025
:104B90000000000000000000000000000000000015
:104BA000AAAAAAAA0000000000000000000000005D
:0400000508000131BD
:00000001FF
